:100000000C9446000C9465000C9465000C946500FB
:100010000C9465000C94AB070C940B080C946500D1
:100020000C9465000C9465000C9465000C946500BC
:100030000C9465000C9465000C9465000C941605F6
:100040000C9465000C9465000C9465000C9465009C
:100050000C9465000C943B020C9465000C946500B4
:100060000C9465000C9465000C9465000C9465007C
:100070000C9465000C94CC040C9422040C94650040
:100080000C94A7020C9465000C94650011241FBE0B
:10009000CFEFD0E1DEBFCDBF11E0A0E0B1E0EEE8F0
:1000A000FFE100E00BBF02C007900D92AE3CB1072C
:1000B000D9F713E0AEECB1E001C01D92A934B1074D
:1000C000E1F70E9430020C94C50F0C940000EF92EF
:1000D000FF920F931F9320910302309104024091ED
:1000E000050250910602E0900702F090080200918C
:1000F000090210910A028DB79EB74A970FB6F8947D
:100100009EBF0FBE8DBFEDB7FEB7319682EA92E07B
:10011000ADB7BEB712969C938E93119780E091E095
:10012000938382838091FF0190910002A0E0B0E070
:10013000820F931FA41FB51F84839583A683B78363
:100140008091010290910202A0E0B0E08E0D9F1D0F
:10015000A01FB11F80879187A287B3878091FB0181
:100160009091FC01958784878091FD019091FE011B
:100170009787868780910B02808B118A80910C0271
:10018000828B138A80915801848B158A8091590142
:10019000868B178A80915A01808F118E0E94C60C1F
:1001A0008DB79EB74A960FB6F8949EBF0FBE8DBF0F
:1001B0000E9457041F910F91FF90EF900895909126
:1001C000DC0180915B019817B1F08091DC018823FC
:1001D00099F0A2EAB2E0E0E2F1E087E001900D924E
:1001E0008150E1F70E94570481E08093FA018091E9
:1001F000DC0180935B010895A2EAB2E0E7E2F1E05E
:1002000088E001900D928150E1F70E94570410920E
:100210004203109241030E94690BE9CFA2EAB2E0C7
:10022000EFE2F1E087E101900D928150E1F70E9449
:1002300057048AE090E00E948A0410920B0208950D
:1002400088EE0E94D7058EE090E00E948A0498EC28
:100250009093580190935A0180911F038093590104
:10026000893110F4909359018091560120915701E2
:100270008091590190E0332727FD3095821793072D
:1002800024F080910C02882329F481E090E00E9400
:100290008A04089510920C020E940A0BF6CF28E1FE
:1002A0000FB6F89421BD11BC0FBE32E0309364004C
:1002B00081E08093650080EC84BB80E285BB90EF99
:1002C0009ABB8FE08BBB86EF87BB28BB92BB21BB61
:1002D00084E082B913B888E08093610080E4809361
:1002E000620085E08ABF80E389BF3FBD2EBD3093A9
:1002F0008B0020938A008EB582608EBD8EB58160A2
:100300008EBD80918A00816080938A008FB588625B
:100310008FBD80E092E197BD86BD80EA9FE090931B
:1003200081008093800080917D00846080937D00B7
:100330008FE591E09BBD8ABD99BD88BD9093790002
:100340008093780090938700809386009093850037
:1003500080938400909383008093820027E023BFE2
:100360008FE881BF37BF1BB880E18AB996E09093D0
:1003700095008FE289B988ED80939A0090939D0053
:1003800020939900789484EF91E00E948A040E945F
:10039000E9090E94620684E690E00E948A0488EEE1
:1003A00064E60E94890588EE69E00E949C058BB393
:1003B0008F7080618BBB82E390E00E948A048BB3D4
:1003C0008F7080638BBB8CE390E00E948A048BB3B8
:1003D0008F7080628BBB86E490E00E948A048BB3AE
:1003E0008F7080668BBB80E590E00E948A048BB39F
:1003F0008F7080648BBB8AE590E00E948A048BB387
:100400008F70806C8BBB84E690E00E948A048BB373
:100410008F7080688BBB8EE690E00E948A048BB35D
:100420008F708BBB0E94A20480E791E090934603FB
:1004300080934503909344038093430310920E02EC
:10044000A2EAB2E0E6E4F1E080E101900D92815091
:10045000E1F70E94570480E293E00E948A04089525
:100460000E944F010E94DF000E9420010E94220C86
:100470000E946700F7CF1F920F920FB60F920BB634
:100480000F9211242F933F938F939F93EF93FF939A
:100490002091CF01E22FF0E084B195B1EE0FFF1F64
:1004A000EB5EFD4F91838083273051F1822F8F5F68
:1004B0008093CF01883001F18730A9F0E82F3E9872
:1004C0003E9A87B1807E8E2B87B9369AFF91EF9145
:1004D0009F918F913F912F910F900BBE0F900FBE68
:1004E0000F901F9018953E9887B1806C87B9E7E010
:1004F000E8CF8BB3806F8BBB1092CF01E0E0DFCFF2
:1005000080912302909124028751924078F6809145
:10051000CE018F5F8093CE01843659F3883C61F71A
:100520008BB38F708BBB1092CE01E6CF5498539A49
:100530005D9BFECF8CB95E9BFECF5398549A80E0B2
:1005400090E008955F9BFECF8CB190E008951F92DC
:100550000F920FB60F920BB60F9211248F939F93A9
:10056000EF93FF93E0916C01F0916D0180916A012E
:1005700090916B01E817F90788F081E090E0909383
:100580006F0180936E01FF91EF919F918F910F907A
:100590000BBE0F900FBE0F901F90189580919B007F
:1005A00085FFFCCF819180939C00F0936D01E093D7
:1005B0006C01E9CF80919B0087FFFCCF80919C006C
:1005C00090E00895982F80919B0085FFFCCF909339
:1005D0009C0080E090E0089580919B0085FFFCCF17
:1005E000E0916C01F0916D01819180939C00F093FA
:1005F0006D01E0936C010895482F8B3309F449C0D5
:1006000080917E01882399F0493609F417C14A3652
:100610000CF07FC0433609F49BC0443609F400C196
:10062000423609F495C080E28093D101089580910B
:10063000D501882369F14D3209F4CDC0842F805350
:100640008A30D8F48091D3019091D4019C01220F7B
:10065000331F220F331F220F331F880F991F280FBC
:10066000391F20533040842F992787FD9095280FFC
:10067000391F3093D4012093D3019BB38091D001D3
:100680008F5F8093D0018295807F9F70892B8BBB79
:10069000089581E080937E018091D101833609F431
:1006A00090C084360CF447C0843609F45DC08337AB
:1006B00079F72091D3013091D4012B30310514F01A
:1006C0002AE030E08091D201992787FD9095829FA2
:1006D000A001839F500D929F500D11245093D4017F
:1006E0004093D30180914203992787FD9095481745
:1006F000590749F08091DC01882329F44093420393
:1007000081E08093FA011092D5018BB38F708BBB7F
:100710000895423709F469C043370CF460C0433789
:1007200009F46AC0453709F07ECF10920B0280E2CF
:100730008093D1010895823609F0AACF8091D30128
:10074000809357018BB38F708BBB1092D5010895A6
:100750004093D10110927E011092D4011092D301E6
:1007600081E08093D50108952091D3013091D40187
:100770002135310514F020E530E08091D201992730
:1007800087FD9095829FA001839F500D929F500DF1
:1007900011245093D4014093D301809141039927B0
:1007A00087FD90954817590709F4ADCF8091DC017A
:1007B000882309F0A8CF4093410381E08093FA0198
:1007C000A2CF8091D301809356018BB38F708BBBE6
:1007D0001092D50108958FEF8093D2014ECF4F36FE
:1007E00009F021CF10920D02089581E08093EF016E
:1007F00080E28093D10108954093D10110927E014F
:100800001092D4011092D30191E09093D50190936E
:10081000D2018BB38F7080618BBB9093D001089510
:100820004093D10110927E011092D4011092D30115
:1008300081E08093D5018093D201089581E0809377
:100840000D0208951F920F920FB60F920BB60F92E2
:1008500011242F933F934F935F936F937F938F93C5
:100860009F93AF93BF93EF93FF9380919B0087FF7C
:10087000FCCF80919C000E94FC02FF91EF91BF9100
:10088000AF919F918F917F916F915F914F913F9128
:100890002F910F900BBE0F900FBE0F901F901895C9
:1008A000949888EE93E00E948A04949A0895809127
:1008B0006E0190916F01892BD1F310926F0110920C
:1008C0006E01E2EAF2E001900020E9F73197E25A86
:1008D000F2404E2FEE3708F04DE750E0CA018B5D35
:1008E0009D4F90936B0180936A0185E292E062EAEA
:1008F00072E00E94B70C80919B0085FFFCCF809135
:10090000250280939C0086E292E090936D01809393
:100910006C010895009739F026E63EE0F901319721
:10092000F1F70197D9F70895982F80538A3038F05E
:100930009062892F8156863018F4892F8755089543
:100940008FEF0895E199FECF1FBA1EBAE09A8DB3DA
:100950008F3F29F080937F0180917F010895E19975
:10096000FECF1FBA1EBA81E38DBB0FB6F894E29A90
:10097000E19A0FBE80937F0180917F010895E199F4
:10098000FECF1FBA1EBA8DBB0FB6F894E29AE19A59
:100990000FBE80937F0108951F920F920FB60F92A2
:1009A00011242F933F934F935F938F939F9390B115
:1009B00091708091D901981751F09093D9019923A2
:1009C00089F08CB59DB590938101809380019F91B2
:1009D0008F915F914F913F912F910F900FBE0F908C
:1009E0001F9018954CB55DB5209180013091810123
:1009F0004217530754F0CA01821B930B21E08C323B
:100A000092076CF41092DC01DCCF86B597B5840FA9
:100A1000951F821B930B21E08C3292079CF38A581E
:100A200092407CF681E08093DC01CBCF1F920F9245
:100A30000FB60F9211248F9312BE8091D8018F5F51
:100A40008093D801863961F1883911F1069910C077
:100A500080910E02882331F481E080930E028BB3E3
:100A6000806F8BBB8F910F900FBE0F901F901895CA
:100A700080910E028823B1F310920E028BB38F7017
:100A800080688BBB8F910F900FBE0F901F901895B1
:100A90001092D80180916500826080936500D6CF66
:100AA000809165008D7F80936500D0CFEF92FF929B
:100AB0000F931F93DF93CF9300D0CDB7DEB7F82EFF
:100AC000E62E198280EA8A838F2D62E08E010F5F05
:100AD0001F4FA8010E94C6068AEA8A838F2D62E012
:100AE000A8010E94C60685EA8A838F2D62E0A801CC
:100AF0000E94C606EA828F2D62E0A8010E94C60607
:100B00000F900F90CF91DF911F910F91FF90EF9079
:100B10000895DF93CF9300D0CDB7DEB792E09983ED
:100B20006A8362E0AE014F5F5F4F0E94C6060F907E
:100B30000F90CF91DF910895DF93CF9300D0CDB781
:100B4000DEB791E099836A8362E0AE014F5F5F4F49
:100B50000E94C6060F900F90CF91DF910895FF92EB
:100B60000F931F93DF93CF930F92CDB7DEB7F82E7D
:100B7000198261E08E010F5F1F4FA8010E94C60617
:100B80008F2D61E0A8010E94340789818F3F39F0E1
:100B90000F90CF91DF911F910F91FF90089580E00A
:100BA0000F90CF91DF911F910F91FF900895CF92F9
:100BB000DF92EF92FF920F931F93DF93CF9300D0BA
:100BC00000D0CDB7DEB7182F8FEF90E090932003C1
:100BD00080931F031B8281E58C8393E0E92EF12C27
:100BE000EC0EFD1E812F62E0A7010E94C60686E67C
:100BF0009EE00197F1F700E086E6C82E8EE0D82E41
:100C00001B82812F61E0A7010E94C606812F61E04F
:100C1000A7010E943407C6010197F1F70F5F023167
:100C200051F18B81882361F3023128F583E08B83B6
:100C3000812F61E0A7010E94C606812F61E0AE010D
:100C40004F5F5F4F0E94340782E08B83812F61E00A
:100C5000A7010E94C606812F61E0AE014E5F5F4F83
:100C60000E9434079A8180E02981820F911D909320
:100C7000200380931F030F900F900F900F90CF9140
:100C8000DF911F910F91FF90EF90DF90CF9008952B
:100C9000BC01809171008E7F809371008091710002
:100CA0008D7F8093710089E999E30E94670F60311D
:100CB00030F0862F90E0409795958795682F609348
:100CC00070000895909A919A84E690E00E944806F8
:100CD000E4E7F0E08081846080831092DB01109271
:100CE000DA0180818E7F8083808180648083789424
:100CF0000895E4E7F0E080818F70806A8083089532
:100D0000E4E7F0E080818F70806D808308958093A8
:100D10007300E4E7F0E080818F708068808308953D
:100D2000882339F4809174008F70806880937400F8
:100D30000895809174008F70806C80937400089582
:100D40008091730008958091710008952091DA01D7
:100D50003091DB01C901089520E03DE703C0215037
:100D6000304049F08091740087FFF9CF12161306C6
:100D700014F481E0089588E08093620088EC90E0AC
:100D80000E948A041092620080E00895982FFA0170
:100D9000809174008F70806A8093740020E03DE73A
:100DA00003C021503040C1F18091740087FFF9CF1A
:100DB000121613068CF59E7F909373008091740039
:100DC0008F7080688093740020E03DE703C021505D
:100DD000304011F18091740087FFF9CF121613068D
:100DE000DCF480917100883139F191E080917400D8
:100DF0008F70806D8093740020E137E206C021502F
:100E000030408FEF2F3F380739F08091740084FF16
:100E1000F6CF1216130654F088E08093620088EC37
:100E200090E00E948A041092620091E0892F089558
:100E3000121613068CF761506623A1F081918093FE
:100E40007300809174008F7080688093740020E03C
:100E50003DE703C021503040F9F28091740087FDD6
:100E6000E7CFF8CF90E0C2CFCF93DF93982FEA017E
:100E7000809174008F70806A8093740020E03DE759
:100E800004C02150304009F447C08091740087FFAE
:100E9000F8CF121613060CF03FC0916090937300C8
:100EA000809174008F7080688093740020E03DE72B
:100EB00003C02150304081F18091740087FFF9CF49
:100EC000121613064CF580917100803491F091E078
:100ED000809174008F70806D80937400892FDF91F2
:100EE000CF91089512161306BCF480917300899374
:100EF00061506230F8F0809174008F70806C809344
:100F0000740020E03DE703C02150304029F080917B
:100F1000740087FDE7CFF8CF88E08093620088EC0B
:100F200090E00E948A041092620091E0892FDF9184
:100F3000CF910895809174008F70806880937400C1
:100F40000E94AC06882329F080917300888390E08A
:100F5000BFCF91E0EBCF1F920F920FB60F921124EB
:100F60002F933F934F935F936F937F938F939F93B1
:100F7000AF93BF934CB55DB52091DD013091DE019B
:100F800042175307C4F566B577B5640F751F621B2A
:100F9000730B5093DE014093DD018091DC018823C7
:100FA000D9F00C9919C09B012156314027393105E0
:100FB00034F58FEF2A36380724F520E030E08091B1
:100FC0004203992787FD90952817390729F0209328
:100FD000420381E08093FA01BF91AF919F918F917D
:100FE0007F916F915F914F913F912F910F900FBE25
:100FF0000F901F901895BA01621B730BCACF20E0A7
:1010000030E088279927821B930B66E070E00E94EE
:101010007B0F9B01D4CF1F920F920FB60F9211241A
:101020002F933F934F935F936F937F938F939F93F0
:10103000AF93BF932CB53DB58091DF019091E00156
:1010400028173907C4F546B557B5420F531F481B3B
:10105000590B3093E0012093DF018091DC0188235C
:10106000D9F00D9919C0CA018E5591408D3891055E
:1010700034F52FEF8437920724F520E030E080919B
:101080004103992787FD90958217930729F02093B4
:10109000410381E08093FA01BF91AF919F918F91BD
:1010A0007F916F915F914F913F912F910F900FBE64
:1010B0000F901F901895A901481B590BCACF80E0CB
:1010C00090E022273327281B390BA90137FD0FC0D9
:1010D0004E5C5F4F429FC001439F900D529F900D09
:1010E000112462EC71E00E947B0F9B01C8CF442762
:1010F0005527421B530BECCF92E16130790710F07A
:1011000060507241E82FF0E0EE0FFF1FEF51FE4FED
:10111000718360838330B9F1843048F0853059F1B0
:10112000853060F470938700609386000895813065
:1011300039F1823030F079BD68BD08958630B1F064
:1011400008957BBD6ABD79BD68BD709379006093D9
:101150007800709387006093860070938500609399
:1011600084007093830060938200089570938300DD
:1011700060938200089570938500609384000895C1
:101180007BBD6ABD089570937900609378000895DF
:10119000DF92EF92FF920F931F93CF93DF93D82E9E
:1011A000EB0190E0880F991FFC01EF51FE4F608129
:1011B00071816C177D07E8F421E0E22EF12C8C019F
:1011C0000F511E4F6E0D7F1D8D2D0E947C088AE0F1
:1011D00090E00E948A04F801608171816C177D079C
:1011E00089F7DF91CF911F910F91FF90EF90DF90E2
:1011F00008956C177D07A9F3EE24EA94FE2CDFCF47
:1012000088E260E070E00E94960210921002109254
:101210000F021092120210921102109213021092F9
:10122000140208950F931F9382E160E070E00E9422
:10123000960280E090E00E94A20280E090E00E948E
:10124000A202182F00E080E090E00E94A202080FA6
:10125000191FC8011F910F9108950F931F9381E1EA
:1012600060E070E00E94960280E090E00E94A2029E
:1012700080E090E00E94A202182F00E080E090E061
:101280000E94A202080F191FC8011F910F91089513
:101290000F931F938AE060E070E00E94960280E066
:1012A00090E00E94A20280E090E00E94A202182F2B
:1012B00000E080E090E00E94A202080F191FC80120
:1012C0001F910F9108950F931F9389E060E070E0E4
:1012D0000E94960280E090E00E94A20280E090E0EE
:1012E0000E94A202182F00E080E090E00E94A2027B
:1012F000080F191FC8011F910F91089580910B02CB
:10130000811108950E946309909300028093FF0168
:1013100081E090E00E948A040E94480990930202B2
:101320008093010281E090E00E948A040E940009FB
:1013300081E080930B022091FF013091000240E098
:1013400050E08091030290910402A0910502B091B7
:101350000602820F931FA41FB51F80930302909370
:101360000402A0930502B09306022091010230917D
:10137000020240E050E08091070290910802A091A3
:101380000902B0910A02820F931FA41FB51F809318
:10139000070290930802A0930902B0930A021092E8
:1013A00000021092FF011092020210920102A2EAC2
:1013B000B2E0E2E8F1E086E101900D928150E1F7C0
:1013C00082EA92E00E94570482E390E00E948A043D
:1013D00008951092030210920402109205021092D6
:1013E000060210920702109208021092090210924F
:1013F0000A0282E06FE571E00E947C0883E06FE5FD
:1014000071E00E947C0882E360E070E00E94960236
:1014100081E090E00E948A0488E260E070E00E942F
:10142000960281E090E00E948A040895CF93DF93B2
:101430008091FB019091FC014091FD015091FE01D2
:101440006091F0017091F101C091F201D091F3012E
:10145000803891050CF452C020E031E0281B390B94
:10146000403851050CF452C0E0E0F1E0E41BF50B0C
:10147000AB0177FD52C0C901880F991F880F991FD2
:1014800035FD56C0841795070CF059C08091F801BE
:101490009091F901893C91050CF07AC024E130E08B
:1014A000161617060CF07AC0620F731F0196909300
:1014B000F9018093F8019E01D7FF48C02227332706
:1014C0002C1B3D0BCF01880F991F880F991FF5FF2B
:1014D00044C0909581959F4F821793070CF441C0AB
:1014E000615A7E4F82E00E947C08C15ADE4F83E041
:1014F000BE010E947C08DF91CF91089522273327F7
:10150000281B390B403851050CF0AECFEE27FF27D2
:10151000E41BF50BAB0177FFAECF44275527461BE5
:10152000570BC901880F991F880F991F35FFAACF44
:10153000909581959F4F841795070CF4A7CF109233
:10154000F9011092F8019E01D7FDB8CFCF01880FA5
:10155000991F880F991FF5FDBCCF821793070CF0D8
:10156000BFCF8091F8019091F901893C910544F435
:1015700084E190E01C161D0644F4C80FD91FB0CFBB
:1015800080E290E01C161D06C4F3C81BD90BA8CF3F
:1015900020E230E0161617060CF486CF621B730BA0
:1015A00085CF1092FA0180910C02882321F080915E
:1015B0000D02882311F180910B028823F1F48091B0
:1015C0000F02909110029093F1018093F00120910D
:1015D0001102309112023093F3012093F201181698
:1015E000190664F491E01216130664F481E09093F6
:1015F0001302809314020E94160A0895892B31F475
:1016000090E0F1CF232B21F480E0F1CF9FEFEBCFDF
:101610008FEFEDCF8091410387FD4AC028E230E093
:101620003093100220930F0280914103992787FD88
:101630009095281B390B3093120220931102809150
:101640004203992787FD909520910F023091100257
:10165000AC01429FC001439F900D529F900D1124F9
:101660006FE070E00E947B0F7093100260930F0296
:1016700080914203992787FD909520911102309126
:101680001202AC01429FC001439F900D529F900DEA
:1016900011246FE070E00E947B0F70931202609340
:1016A000110282EA92E00E9457040E94D10A089532
:1016B00080914103992787FD909588969093100219
:1016C00080930F0288E290E09093120280931102BF
:1016D000B6CF82E090E06FE571E00E94C80883E039
:1016E00090E06FE571E00E94C8081092100210921D
:1016F0000F02109212021092110210921302109215
:10170000140208950F931F93CF93DF9300910F025C
:1017100010911002C0911102D09112020E94690B27
:10172000A2EAB2E0E8E9F1E080E101900D92815097
:10173000E1F70E94570488EB9BE00E948A040E9414
:101740006309909300028093FF0181E090E00E9482
:101750008A040E9448099093020280930102A2EA3F
:10176000B2E0E8EAF1E082E101900D928150E1F708
:101770000E9457040E94000984E690E00E948A04B7
:101780002091FF013091000240E050E0809103027F
:1017900090910402A0910502B0910602820F931F5E
:1017A000A41FB51F8093030290930402A093050227
:1017B000B0930602209101023091020240E050E015
:1017C0008091070290910802A0910902B0910A024B
:1017D000820F931FA41FB51F8093070290930802E6
:1017E000A0930902B0930A021093100200930F0213
:1017F000D0931202C09311020E94630990930002D9
:101800008093FF0181E090E00E948A040E944809D1
:10181000909302028093010281E090E00E948A048A
:10182000A2EAB2E0EAEBF1E08AE001900D92815089
:10183000E1F70E9457040E94D10ADF91CF911F91D6
:101840000F9108950E946309909300028093FF0115
:1018500081E090E00E948A040E944809909302026D
:101860008093010281E090E00E948A0480910E0240
:10187000882309F071C080910B028823A1F5809123
:10188000EF018823B1F58091FF019091000297FD4F
:1018900066C0855C994024F5809101029091020216
:1018A00097FD61C0855C9940DCF40E942D099093FE
:1018B000FC018093FB0181E090E00E948A040E9479
:1018C00012099093FE018093FD0181E090E00E9457
:1018D0008A048091FA018823E1F50E94160A08958E
:1018E0000E94820BE2CF0E940E018091EF018823BB
:1018F00051F28091FF0190910002909581959F4F48
:10190000A0E0B0E08093030290930402A09305024C
:10191000B093060280910102909102029095819508
:101920009F4FA0E0B0E08093070290930802A0933D
:101930000902B0930A021092EF01A2EAB2E0E4ECCD
:10194000F1E089E001900D928150E1F70E94570487
:101950009ACF0E940A0B08950E947E0990CF90951D
:1019600081959F4F96CF909581959F4F9BCFFB017F
:10197000DC014150504048F001900D920020C9F721
:1019800001C01D9241505040E0F70895AEE0B0E034
:10199000ECECFCE00C949C0F0D891E8986E08C8396
:1019A0001A8309838FEF9FE79E838D839E01275EB5
:1019B0003F4FCE0101966F89788DA9010E94EA0CF4
:1019C0002F813885020F131FF80110822E96E4E054
:1019D0000C94B80FABE0B0E0E0EFFCE00C948E0F9D
:1019E0003C012B015A01FC0117821682838181FD83
:1019F00003C06FEF7FEFC6C19AE0892E1E010894E5
:101A0000211C311CF3012381F20123FD859123FF69
:101A100081912F01882309F4B2C1853239F423FD65
:101A2000859123FF81912F01853229F490E0B30144
:101A30000E94DD0EE7CF982FFF24EE249924FFE1CA
:101A4000FF15D0F09B3269F09C3228F4903259F0A7
:101A5000933291F40EC09D3249F0903369F441E025
:101A600024C052E0F52A84E0F82A28C098E0F92A38
:101A700025C0E0E1FE2A22C0F7FC29C0892F80534F
:101A80008A3070F4F6FE05C0989C902C1124980EB4
:101A900015C0E89CE02C1124E80EF0E2FF2A0EC0ED
:101AA0009E3229F4F6FC6BC140E4F42A07C09C3650
:101AB00019F450E8F52A02C0983649F4F20123FDE2
:101AC000959123FF91912F01992309F0B8CF892F88
:101AD0008554833018F08052833038F444E050E06D
:101AE000A40EB51E5FE359830FC0933631F09337D0
:101AF00079F0933509F056C020C0F50180818983C3
:101B000042E050E0A40EB51E610101E010E012C0F9
:101B1000F501C080D180F6FC03C06FEF7FEF02C0FB
:101B2000692D70E042E050E0A40EB51EC6010E948F
:101B3000D20E8C015FE7F52214C0F501C080D18080
:101B4000F6FC03C06FEF7FEF02C0692D70E042E04A
:101B500050E0A40EB51EC6010E94C70E8C0150E8CD
:101B6000F52AF3FE07C01AC080E290E0B3010E949C
:101B7000DD0EEA948E2D90E008171907A8F30EC029
:101B8000F601F7FC8591F7FE81916F0190E0B301BA
:101B90000E94DD0EE110EA9401501040011511057C
:101BA00079F7EAC0943611F0993669F5F7FE08C066
:101BB000F501208131814281538184E090E00AC0A7
:101BC000F501808191819C01442737FD4095542F78
:101BD00082E090E0A80EB91E9FE6F92257FF09C0E7
:101BE00050954095309521953F4F4F4F5F4FE0E81E
:101BF000FE2ACA01B901A1012AE030E00E94090FC2
:101C0000D82ED21840C0953729F41F2D1F7E2AE008
:101C100030E01DC01F2D197F9F3661F0903720F4F2
:101C2000983509F0ACC00FC0903739F0983709F0FB
:101C3000A6C004C028E030E00AC0106114FD1460A2
:101C400020E130E004C014FD166020E132E017FF0F
:101C500008C0F501608171818281938144E050E088
:101C600008C0F50180819181BC0180E090E042E0F4
:101C700050E0A40EB51EA1010E94090FD82ED21863
:101C80008FE7F82EF122F6FE0BC05EEFF522D91495
:101C900038F4F4FE07C0F2FC05C08FEEF82202C053
:101CA0001D2D01C0192DF4FE0DC0FE01ED0DF11D1D
:101CB0008081803319F499EEF92208C01F5FF2FE8B
:101CC00005C003C08F2D867809F01F5F0F2DF3FC30
:101CD00014C0F0FE0FC01E1510F09D2C0BC09D2CE3
:101CE0009E0C911A1E2D06C080E290E0B3010E9466
:101CF000DD0E1F5F1E15C0F304C01E1510F4E11A9F
:101D000001C0EE2404FF0FC080E390E0B3010E9405
:101D1000DD0E02FF1DC001FD03C088E790E00EC08C
:101D200088E590E00BC0802F867891F001FF02C01B
:101D30008BE201C080E2F7FC8DE290E0B3010E94EB
:101D4000DD0E06C080E390E0B3010E94DD0E9A94A0
:101D5000D914C0F3DA94F101ED0DF11D808190E00A
:101D6000B3010E94DD0EDD20A9F706C080E290E0FD
:101D7000B3010E94DD0EEA94EE20C1F743CEF301D9
:101D800066817781CB012B96E2E10C94AA0FFC01CE
:101D90000590615070400110D8F7809590958E0F96
:101DA0009F1F0895FC016150704001900110D8F709
:101DB000809590958E0F9F1F08950F931F93CF933B
:101DC000DF938C01EB018B8181FF1BC082FF0DC073
:101DD0002E813F818C819D812817390764F4E88129
:101DE000F9810193F983E88306C0E885F985802F9E
:101DF0000995892B31F48E819F8101969F838E8373
:101E000002C00FEF1FEFC801DF91CF911F910F911B
:101E10000895FA01AA27283051F1203181F1E89480
:101E20006F936E7F6E5F7F4F8F4F9F4FAF4FB1E0CD
:101E30003ED0B4E03CD0670F781F891F9A1FA11DC8
:101E4000680F791F8A1F911DA11D6A0F711D811DC9
:101E5000911DA11D20D009F468943F912AE0269F8E
:101E600011243019305D3193DEF6CF010895462FED
:101E70004770405D4193B3E00FD0C9F7F6CF462FCE
:101E80004F70405D4A3318F0495D31FD4052419337
:101E900002D0A9F7EACFB4E0A695979587957795F4
:101EA0006795BA95C9F700976105710508959B017B
:101EB000AC010A2E06945795479537952795BA9504
:101EC000C9F7620F731F841F951FA01D0895AA1BD9
:101ED000BB1B51E107C0AA1FBB1FA617B70710F015
:101EE000A61BB70B881F991F5A95A9F78095909547
:101EF000BC01CD01089597FB092E07260AD077FD76
:101F000004D0E5DF06D000201AF4709561957F4F6C
:101F10000895F6F7909581959F4F08952F923F92DF
:101F20004F925F926F927F928F929F92AF92BF92E9
:101F3000CF92DF92EF92FF920F931F93CF93DF9395
:101F4000CDB7DEB7CA1BDB0B0FB6F894DEBF0FBEF2
:101F5000CDBF09942A88398848885F846E847D843F
:101F60008C849B84AA84B984C884DF80EE80FD8041
:101F70000C811B81AA81B981CE0FD11D0FB6F894B7
:0E1F8000DEBF0FBECDBFED010895F894FFCF78
:101F8E0040256C6420256C64202564202564202562
:101F9E00642025642025752025752025750A0D00E1
:101FAE0021724F4E0A0D0021724F46460A0D002136
:101FBE007265645F7377697463685F72656C65617F
:101FCE007365640A0D002120736D656C79207A614A
:101FDE006A6B6F0A0D002D50FFFFFF020000000319
:101FEE00000000009602A202000025022502010058
:101FFE000000000300000000E202DA0200000131DE
:10200E0018FC21726564207377697463682070729E
:10201E0065737365640A0D00216E65656420612029
:10202E00627265616B0A0D002172657365742070B2
:10203E006F7320746F20300A0D0021726573756DF9
:0E204E00650A0D002172657365740A0D0000AD
:00000001FF
