:100000000C9446000C9465000C9465000C946500FB
:100010000C9465000C94700A0C94DC0A0C94650036
:100020000C9465000C9465000C9465000C946500BC
:100030000C9465000C9465000C9465000C94C40746
:100040000C9465000C9465000C9465000C9465009C
:100050000C9465000C946D030C9465000C94650081
:100060000C9465000C9465000C9465000C9465007C
:100070000C9465000C946A060C9461050C94650060
:100080000C94D9030C9465000C94650011241FBED8
:10009000CFEFD0E1DEBFCDBF12E0A0E0B1E0E6EEF1
:1000A000F7E200E00BBF02C007900D92A030B1074D
:1000B000D9F713E0A0E0B2E001C01D92A639B10764
:1000C000E1F70E9462030C94F1130C940000CF92AC
:1000D000DF92EF92FF920F931F9320915402309181
:1000E00055024091560250915702E0905802F0900C
:1000F000590200915A0210915B026091480270917E
:100100004902C0904A02D0904B028DB79EB74E97DD
:100110000FB6F8949EBF0FBE8DBFEDB7FEB73196F8
:100120008FEE92E0ADB7BEB712969C938E93119767
:1001300080E091E0938382838091500290915102FC
:10014000AA2797FDA095BA2F820F931FA41FB51F52
:1001500084839583A683B783809152029091530242
:10016000AA2797FDA095BA2F8E0D9F1DA01FB11F26
:1001700080879187A287B38775876487D786C6866D
:1001800080915C02808B118A80915D02828B138A40
:100190008091040290910502958B848B80910602D8
:1001A00090910702978B868B8091080290910902AB
:1001B000918F808F80910A0290910B02938F828F92
:1001C00080910C0290910D02958F848F0E94961061
:1001D0008DB79EB74E960FB6F8949EBF0FBE8DBFDB
:1001E0000E9496051F910F91FF90EF90DF90CF90A6
:1001F00008959091270280919F019817B9F08091FE
:100200002702882309F494C0AFEEB2E0E6E2F1E001
:1002100087E001900D928150E1F70E94960581E000
:10022000809347028091270280939F01909128023A
:1002300080919E019817B9F080912802882309F4D3
:100240006DC0AFEEB2E0E5E3F1E08BE001900D921E
:100250008150E1F70E94960581E0809347028091EA
:10026000280280939E012091CE013091CF01809190
:100270000202909103022817390761F18091CE01A3
:100280009091CF0190930302809302022091CE01BE
:100290003091CF0100D000D000D0EDB7FEB731963D
:1002A0008FEE92E0ADB7BEB712969C938E931197E6
:1002B0008BE491E093838283358324830E9496109C
:1002C0008DB79EB706960FB6F8949EBF0FBE8DBF32
:1002D0000E9496059091290280919D01981799F0AE
:1002E00080912902882381F0AFEEB2E0E5E5F1E0EC
:1002F0008CE001900D928150E1F70E94960580916B
:10030000290280939D010895AFEEB2E0E1E6F1E0AD
:100310008BE001900D928150E1F7EFCFAFEEB2E0AC
:10032000E0E4F1E08BE001900D928150E1F792CF93
:10033000AFEEB2E0EDE2F1E088E001900D92815085
:10034000E1F70E94960510928F0310928E030E948F
:10035000CF0E68CFAFEEB2E0ECE6F1E087E10190BE
:100360000D928150E1F70E9496058AE090E00E948C
:10037000C90510925C02089586EE0E949C088EE0EA
:1003800090E00E94C90580916C0390916D03909359
:10039000090280930802499730F488EC90E090932A
:1003A00009028093080280910102880F8E510E94F9
:1003B0009C088EE090E00E94C90520910102E22F86
:1003C000F0E080916C0390916D03EE0FFF1FEC5FE6
:1003D000FD4F918380830A9720F488EC90E091830D
:1003E0008083822F8F5F80930102823009F46EC078
:1003F000853009F45DC080919A01992787FD909519
:1004000020910402309105022817390760F080918D
:100410009B01992787FD9095209106023091070254
:1004200028173907C8F4809100028B5F809300027F
:1004300080310CF440C08FE08093000280915E0216
:10044000882329F480915D02882309F443C081E068
:1004500090E00E94C905089580919C01992787FD2D
:100460009095209108023091090228173907D8F297
:1004700080919B01992787FD909520910A023091E8
:100480000B022817390778F280919A01992787FD86
:10049000909520910C0230910D022817390718F21F
:1004A00080910002882349F0815080930002C0CFE0
:1004B00010920102A0CF882351F680915D0288231B
:1004C00031F210925D020E94E30CC1CF83E0809371
:1004D000010291CF0E94CF0E81E080935D02AFEECA
:1004E000B2E0E3E8F1E087E001900D928150E1F79E
:1004F0000E949605ACCF1F9328E10FB6F89421BD5A
:1005000011BC0FBE32E03093640081E0809365003F
:1005100080E285BB90EF9ABB8FE08BBB86EF87BBF9
:1005200028BB92BB21BB84E082B913B840E1409361
:1005300061001092620085E08ABF80E389BF3FBD01
:100540002EBD30938B0020938A008EB582608EBDC5
:100550008EB581608EBD80918A00816080938A0013
:100560008FB588628FBD80E092E197BD86BD80E245
:1005700093E0909381008093800080917D0084605F
:1005800080937D0089E591E09BBD8ABD99BD88BDC2
:1005900090937900809378009093870080938600F1
:1005A00090938500809384009093830080938200D1
:1005B00027E023BF8FE881BF37BF1BB84AB996E059
:1005C000909395008FE289B988ED80939A0090937B
:1005D0009D0020939900789484EF91E00E94C905D2
:1005E0000E94180E0E9427098CEB92E00E94C90518
:1005F00012EE812F64E60E944E08812F69E00E946E
:10060000610883E090E00E94C9051E5F1C3E89F7E7
:100610008BB38F7080618BBB82E390E00E94C90531
:100620008BB38F7080638BBB8CE390E00E94C90515
:100630008BB38F7080628BBB86E490E00E94C9050B
:100640008BB38F7080668BBB80E590E00E94C905FC
:100650008BB38F7080648BBB8AE590E00E94C905E4
:100660008BB38F70806C8BBB84E690E00E94C905D1
:100670008BB38F7080688BBB8EE690E00E94C905BB
:100680008BB38F708BBB0E94E10584EB91E090935C
:10069000930380939203909391038093900310921D
:1006A0005F02AFEEB2E0EAE8F1E080E101900D9286
:1006B0008150E1F70E94960580E293E00E94C9050F
:1006C0001F9108950E947B020E94F9000E94BC01C4
:1006D0000E946D0F0E946700F7CF1F920F920FB616
:1006E0000F920BB60F9211242F933F938F939F93EA
:1006F000EF93FF9320910F02E22FF0E084B195B1C8
:10070000EE0FFF1FEE59FD4F91838083273051F18B
:10071000822F8F5F80930F02883001F18730A9F01C
:10072000E82F3E983E9A87B1807E8E2B87B9369A05
:10073000FF91EF919F918F913F912F910F900BBE61
:100740000F900FBE0F901F9018953E9887B1806C48
:1007500087B9E7E0E8CF8BB3806F8BBB10920F02B5
:10076000E0E0DFCF8091700290917102875192405A
:1007700078F680910E028F5F80930E02843659F3D3
:10078000883C61F78BB38F708BBB10920E02E6CF63
:100790005498539A5D9BFECF8CB95E9BFECF5398C5
:1007A000549A80E090E008955F9BFECF8CB190E07A
:1007B00008951F920F920FB60F920BB60F9211244D
:1007C0008F939F93EF93FF93E091B001F091B1016C
:1007D0008091AE019091AF01E817F90788F081E0B0
:1007E00090E09093B3018093B201FF91EF919F91BC
:1007F0008F910F900BBE0F900FBE0F901F9018950A
:1008000080919B0085FFFCCF819180939C00F093A9
:10081000B101E093B001E9CF80919B0087FFFCCF4D
:1008200080919C0090E00895982F80919B0085FF17
:10083000FCCF90939C0080E090E0089580919B0015
:1008400085FFFCCFE091B001F091B10181918093DF
:100850009C00F093B101E093B0010895482F8B33D1
:1008600009F449C08091C201882399F0493609F4FE
:100870001DC14A360CF086C0433609F4B4C0443674
:1008800009F403C1423609F4AEC080E2809311023C
:10089000089580911502882369F14D3209F4AFC0A3
:1008A000842F80538A30D8F48091130290911402DF
:1008B0009C01220F331F220F331F220F331F880F7B
:1008C000991F280F391F20533040842F992787FD07
:1008D0009095280F391F30931402209313029BB375
:1008E000809110028F5F809310028295807F9F70AD
:1008F000892B8BBB089581E08093C2018091110206
:10090000843609F48AC085360CF45BC08D3609F450
:10091000B1C0833779F78091CE019091CF012091BA
:10092000130230911402821793072CF48091CE01A8
:100930009091CF019C0180911202992787FD90959B
:10094000829FA001839F500D929F500D11245093C0
:1009500014024093130280918F03992787FD90958D
:100960004817590749F080912702882329F44093BA
:100970008F0381E080934702109215028BB38F7032
:100980008BBB08954F3609F48EC040374CF1423787
:1009900009F490C0433709F078CF409311021092C8
:1009A000C201109214021092130291E0909315026A
:1009B000909312028BB38F7080618BBB9093100267
:1009C0000895823601F1833609F094CF80911302A5
:1009D00080939B018BB38F708BBB1092150208958F
:1009E0004D3609F052CF409311021092C20110927D
:1009F00014021092130281E08093150208958FEF84
:100A0000809312026CCF8091130280939C018BB370
:100A10008F708BBB109215020895209113023091B4
:100A200014022135310514F020E530E080911202E6
:100A3000992787FD9095829FA001839F500D929FDB
:100A4000500D1124509314024093130280918E0391
:100A5000992787FD90954817590709F48DCF809104
:100A60002702882309F088CF40938E0381E080938A
:100A7000470282CF80911302909114029093CF018C
:100A80008093CE01109215020895409311021092A6
:100A9000C201109214021092130281E08093150299
:100AA00080931202089510925E02089581E080936F
:100AB0005E02089581E080933C0280E280931102FF
:100AC00008951F920F920FB60F920BB60F9211243A
:100AD0002F933F934F935F936F937F938F939F9346
:100AE000AF93BF93EF93FF9380919B0087FFFCCF61
:100AF00080919C000E942E04FF91EF91BF91AF91D5
:100B00009F918F917F916F915F914F913F912F9125
:100B10000F900BBE0F900FBE0F901F9018959498DA
:100B200088EE93E00E94C905949A08958091B201DD
:100B30009091B301892BD1F31092B3011092B201BD
:100B4000EFEEF2E001900020E9F73197EF5EF2401E
:100B50004E2FEE3708F04DE750E0CA018E589D4FFA
:100B60009093AF018093AE0182E792E06FEE72E066
:100B70000E94871080919B0085FFFCCF80917202BC
:100B800080939C0083E792E09093B1018093B00141
:100B90000895009739F026E63EE0F9013197F1F724
:100BA0000197D9F70895982F80538A3038F09062D2
:100BB000892F8156863018F4892F875508958FEF35
:100BC0000895E199FECF1FBA1EBAE09A8DB38F3F08
:100BD00029F08093C3018091C3010895E199FECF6C
:100BE0001FBA1EBA81E38DBB0FB6F894E29AE19A60
:100BF0000FBE8093C3018091C3010895E199FECF98
:100C00001FBA1EBA8DBB0FB6F894E29AE19A0FBED6
:100C10008093C3010895CF92DF92EF92FF920F93DA
:100C20001F93CF93DF938C018B30910508F43EC066
:100C3000EC0173E3C72E73E7D72E66E6E62E6EE06F
:100C4000F62E2A97C6010197F1F70E941B10909586
:100C500081959F4F9093490280934802C701019765
:100C6000F1F70E943610909581959F4F90934B021B
:100C700080934A02C7010197F1F7CB30D10508F7FD
:100C8000C8010B976AE070E00E945613CB019B01EC
:100C9000220F331F220F331F220F331F880F991F7C
:100CA000280F391F0A501040021B130B01151105A4
:100CB00041F026E63EE0C9010197F1F701501040EE
:100CC000D1F7DF91CF911F910F91FF90EF90DF90BF
:100CD000CF9008951F920F920FB60F9211242F9369
:100CE0003F934F935F936F937F938F939F93EF9374
:100CF00080B180931E028093190290B191709093FD
:100D00001F0260B162706093200270B174707093C2
:100D10002102E0B1E870E093220280911A02981754
:100D200059F090931A02992309F4CEC08CB59DB561
:100D30009093C5018093C40180911B02681759F0FC
:100D400060931B02662309F49DC08CB59DB59093FA
:100D5000C7018093C60180912702882389F1809181
:100D60001C02781769F170931C02772319F52CB5D2
:100D70003DB530932402209323024091C801509145
:100D8000C901241735070CF0F2C086B597B5820F5C
:100D9000931F841B950B90932402809323028091D0
:100DA00023029091240221E08E3092070CF0D5C0EE
:100DB000109228028CB59DB59093C9018093C8010B
:100DC00080912702882309F44FC080911D02E81703
:100DD00009F44AC0E0931D02EE2309F03FC02CB590
:100DE0003DB530932402209323024091CA015091D3
:100DF000CB01241735070CF0A9C086B597B5820F33
:100E0000931F841B950B909324028093230280915F
:100E100023029091240242E08A389407FCF484561D
:100E2000904097FDAFC09C01359527953595279546
:100E3000359527953093CD012093CC018091CE013B
:100E40009091CF01A901481B590BCA0157FD96C0CB
:100E5000059724F03093CF012093CE018CB59DB53A
:100E60009093CB018093CA01EF919F918F917F91D5
:100E70006F915F914F913F912F910F900FBE0F9007
:100E80001F9018952CB53DB5309324022093230272
:100E90004091C6015091C70124173507F4F586B576
:100EA00097B5820F931F841B950B90932402809318
:100EB0002302809123029091240251E08E30950705
:100EC000DCF51092290241CF2CB53DB530932402B8
:100ED000209323024091C4015091C5012417350786
:100EE0008CF0241B350B3093240220932302809135
:100EF00023029091240221E08C329207ACF41092EC
:100F0000270214CF86B597B5820F931F841B950BCC
:100F10009093240280932302EACF241B350B309355
:100F2000240220932302C5CF8A5892400CF0FECEB3
:100F300081E080932702FACE8B5991408F3E910534
:100F400008F003CF81E080932902FFCE241B350BEC
:100F500030932402209323025ACF8B5991408F3E25
:100F6000910508F027CF81E08093280223CF241B2E
:100F7000350B309324022093230211CF9095819555
:100F80009F4F66CF07964FCF1F920F920FB60F92CB
:100F90000BB60F9211242F933F934F935F936F9350
:100FA0007F938F939F93AF93BF93EF93FF9312BE63
:100FB000809118028F5F809318028639B1F18839C9
:100FC00061F19D991FC080915F02882331F481E017
:100FD00080935F028BB3806F8BBB0E94780DFF9173
:100FE000EF91BF91AF919F918F917F916F915F91A1
:100FF0004F913F912F910F900BBE0F900FBE0F900E
:101000001F90189580915F02882339F310925F0238
:101010008BB38F7080688BBBE0CF109218028091E9
:101020006500826080936500CCCF809165008D7FE4
:1010300080936500C6CFEF92FF920F931F93DF93CB
:10104000CF9300D0CDB7DEB7F82EE62E198280EA16
:101050008A838F2D62E08E010F5F1F4FA8010E94CF
:101060008B098AEA8A838F2D62E0A8010E948B098E
:1010700085EA8A838F2D62E0A8010E948B09EA82AB
:101080008F2D62E0A8010E948B090F900F90CF91E5
:10109000DF911F910F91FF90EF900895DF93CF9311
:1010A00000D0CDB7DEB792E099836A8362E0AE01EB
:1010B0004F5F5F4F0E948B090F900F90CF91DF9190
:1010C0000895DF93CF9300D0CDB7DEB791E0998339
:1010D0006A8362E0AE014F5F5F4F0E948B090F9001
:1010E0000F90CF91DF910895FF920F931F93DF939D
:1010F000CF930F92CDB7DEB7F82E198261E08E0143
:101100000F5F1F4FA8010E948B098F2D61E0A8017E
:101110000E94F90989818F3F39F00F90CF91DF91BB
:101120001F910F91FF90089580E00F90CF91DF9174
:101130001F910F91FF900895CF92DF92EF92FF924F
:101140000F931F93DF93CF9300D000D0CDB7DEB7BE
:10115000182F8FEF90E090936D0380936C031B82A8
:1011600081E58C8393E0E92EF12CEC0EFD1E812F9E
:1011700062E0A7010E948B0986E69EE00197F1F7E5
:1011800000E086E6C82E8EE0D82E1B82812F61E01B
:10119000A7010E948B09812F61E0A7010E94F90934
:1011A000C6010197F1F70F5F0E3151F18B81882352
:1011B00061F30E3128F583E08B83812F61E0A70175
:1011C0000E948B09812F61E0AE014F5F5F4F0E944B
:1011D000F90982E08B83812F61E0A7010E948B09CE
:1011E000812F61E0AE014E5F5F4F0E94F9099A8145
:1011F00080E02981820F911D90936D0380936C0391
:101200000F900F900F900F90CF91DF911F910F9142
:10121000FF90EF90DF90CF900895BC018091710016
:101220008E7F80937100809171008D7F809371001B
:1012300089E999E30E945613603130F0862F90E0DF
:10124000409795958795682F609370000895909AC0
:10125000919A84E690E00E940D09E4E7F0E0808135
:1012600084608083109226021092250280818E7FF6
:10127000808380818064808378940895E4E7F0E03F
:1012800080818F70806A80830895E4E7F0E0808138
:101290008F70806D8083089580937300E4E7F0E0A1
:1012A00080818F70806880830895882339F48091CD
:1012B00074008F708068809374000895809174002A
:1012C0008F70806C809374000895809173000895EE
:1012D0008091710008952091250230912602C90164
:1012E000089520E03DE703C02150304049F080914F
:1012F000740087FFF9CF1216130614F481E00895E5
:1013000080E18093620088EC90E00E940B061092CE
:10131000620080E00895982FFA01809174008F7028
:10132000806A8093740020E03DE703C02150304084
:10133000C1F18091740087FFF9CF121613068CF566
:101340009E7F90937300809174008F70806880936B
:10135000740020E03DE703C02150304011F180913E
:10136000740087FFF9CF12161306DCF48091710028
:10137000883139F191E0809174008F70806D809395
:10138000740020E137E206C0215030408FEF2F3F3C
:10139000380739F08091740084FFF6CF12161306D7
:1013A00054F080E18093620088EC90E00E940B068C
:1013B0001092620091E0892F0895121613068CF79F
:1013C00061506623A1F08191809373008091740035
:1013D0008F7080688093740020E03DE703C0215047
:1013E0003040F9F28091740087FDE7CFF8CF90E0AC
:1013F000C2CFCF93DF93982FEA01809174008F7052
:10140000806A8093740020E03DE704C021503040A2
:1014100009F447C08091740087FFF8CF12161306B5
:101420000CF03FC0916090937300809174008F70B6
:1014300080688093740020E03DE703C02150304075
:1014400081F18091740087FFF9CF121613064CF5D5
:1014500080917100803491F091E0809174008F70E0
:10146000806D80937400892FDF91CF9108951216BB
:101470001306BCF480917300899361506230F8F0D8
:10148000809174008F70806C8093740020E03DE741
:1014900003C02150304029F08091740087FDE7CFD0
:1014A000F8CF80E18093620088EC90E00E940B0608
:1014B0001092620091E0892FDF91CF910895809181
:1014C00074008F708068809374000E947109882373
:1014D00029F080917300888390E0BFCF91E0EBCF3B
:1014E0001F920F920FB60F9211242F933F934F9399
:1014F0005F936F937F938F939F93AF93BF932CB51D
:101500003DB580912A0290912B02281739070CF0E3
:1015100048C046B557B5420F531F481B590B30936F
:101520002B0220932A0280912702882359F10C99DB
:1015300029C0CA018156914087399105B4F52FEF32
:101540008A369207A4F520E030E08091CE01909198
:10155000CF01AC01249FC001259F900D349F900DB9
:10156000112468E770E00E946A1380918F03992725
:1015700087FD90958617970729F060938F0381E088
:1015800080934702BF91AF919F918F917F916F910F
:101590005F914F913F912F910F900FBE0F901F9031
:1015A0001895A901481B590BBACF80E090E022277B
:1015B0003327281B390BC9CF1F920F920FB60F92FA
:1015C00011242F933F934F935F936F937F938F9348
:1015D0009F93AF93BF932CB53DB580912C02909112
:1015E0002D0228173907C4F546B557B5420F531FCA
:1015F000481B590B30932D0220932C028091270217
:101600008823D9F00D9919C0CA018E5591408D38A3
:10161000910534F52FEF8437920724F520E030E070
:1016200080918E03992787FD90958217930729F063
:1016300020938E0381E080934702BF91AF919F91E9
:101640008F917F916F915F914F913F912F910F906B
:101650000FBE0F901F901895A901481B590BCACFB8
:1016600080E090E022273327281B390BA90137FDA2
:101670000FC04E5C5F4F429FC001439F900D529F31
:10168000900D112464EB70E00E946A139B01C8CF97
:1016900044275527421B530BECCFEEE2F2E089E5DD
:1016A00091E08193919322E0EC33F207D1F7089512
:1016B00092E16130790710F060507241E82FF0E05C
:1016C000EE0FFF1FE25DFD4F71836083833089F170
:1016D000843048F0853029F1853060F470938700BC
:1016E000609386000895813009F1823030F079BD31
:1016F00068BD0895863081F0089579BD68BD709306
:101700007900609378007093330260933202709393
:1017100035026093340208957093830060938200D1
:101720000895709385006093840008957BBD6ABD21
:101730000895709379006093780008952F923F92F6
:101740004F925F926F927F928F929F92AF92BF92D1
:10175000CF92DF92EF92FF920F931F93DF93CF937D
:10176000CDB7DEB762970FB6F894DEBF0FBECDBF20
:10177000F82E7A8B698B882309F0BDC02091320244
:10178000309133022617370708F401C14FEF5FEF9E
:10179000A0903402B0903502E988FA88AE14BF04F4
:1017A00008F4F8C0CC24CA94DC2C890189899A8970
:1017B000081B190B17FDF8C04501A989BA898A1AB7
:1017C0009B0A97FCFBC0C401081519050CF4C8015D
:1017D0001C01442437FC4094542C121413041404A8
:1017E00015040CF082C0C901AA2797FDA095BA2F55
:1017F00089839A83AB83BC83BA01882777FD809560
:10180000982F9801442737FD4095542F75010027E4
:10181000F7FC0095102FED86FE860F87188B76015A
:101820000027F7FC0095102F5401CC24B7FCC0947E
:10183000DC2C0E94371369877A878B879C87C801C5
:10184000B701A60195010E9437136D837E838F83B4
:101850009887662477244301AA24BB246501EE24DB
:10186000FF248701C601B501A20191010E947D13E9
:1018700089819A81AB81BC81280F391F4A1F5B1F68
:1018800082E0B9010E94580BC801B701A201910181
:101890000E947D138D859E85AF85B889280F391FDD
:1018A0004A1F5B1F83E0B9010E94580B8CE090E057
:1018B0000E94C9050894611C711C811C911C8985BA
:1018C0009A85AB85BC85A80EB91ECA1EDB1E8D810C
:1018D0009E81AF81B885E80EF91E0A1F1B1F621496
:1018E0007304840495040CF4BDCF80E069897A897F
:1018F0000E94580B30C090E0880F991FFC01E25DF8
:10190000FD4F60817181A989BA896A177B07E0F16F
:10191000E989FA89E617F707C9F00FEF1FEF2EE202
:10192000C22E22E0D22EC80ED91E600F711F8F2D3D
:101930000E94580B8CE090E00E94C905D6016D9181
:101940007C91E989FA896E177F0779F78F2D69896C
:101950007A890E94580B62960FB6F894DEBF0FBECC
:10196000CDBFCF91DF911F910F91FF90EF90DF904E
:10197000CF90BF90AF909F908F907F906F905F902F
:101980004F903F902F90089501E010E0C8CF41E0C4
:1019900050E0FECE61E0C62ED12C890189899A895A
:1019A000081B190B17FF08CF109501951F4F450114
:1019B000A989BA898A1A9B0A97FE05CF90948194C7
:1019C0009108939400CF80915D02882329F0809143
:1019D0005E02882309F471C080915C02882309F0BB
:1019E0006BC080918E0387FD72C028E230E0309397
:1019F0004D0220934C0280918E03992787FD90958C
:101A0000281B390B30934F0220934E0280918F0395
:101A100020914C0230914D02992787FD9095AC01A1
:101A2000429FC001439F900D529F900D11249093AF
:101A30004D0280934C0280914C0290914D0244964D
:101A400090934D0280934C0280914C0290914D02F4
:101A500068E270E00E946A1370934D0260934C023A
:101A600080918F0320914E0230914F02992787FD7C
:101A70009095AC01429FC001439F900D529F900DE5
:101A8000112490934F0280934E0280914E029091C8
:101A90004F02449690934F0280934E0280914E02E3
:101AA00090914F0268E270E00E946A1370934F02B7
:101AB00060934E0210924702089580912802882375
:101AC000D9F380915C02882309F48BCFF5CF809104
:101AD0008E03992787FD9095889690934D02809369
:101AE0004C0288E290E090934F0280934E028ECF9A
:101AF000809160028823C1F18091600281508093BF
:101B0000600280916102882309F051C020914E0249
:101B100030914F0280914A0290914B0282179307B5
:101B20000CF04BC080913F02909140028C5C914040
:101B300048F480913F0290914002019690934002B8
:101B400080933F0283E08093610260913F02709135
:101B5000400283E00E94580B60913D0270913E026A
:101B600082E00E94580B089520914C0230914D0262
:101B7000809148029091490282179307E4F5809181
:101B80003D0290913E028C5C914048F480913D0270
:101B900090913E02019690933E0280933D0283E035
:101BA0008093600280916102882309F4AFCF809115
:101BB0006102815080936102C8CF20914E02309122
:101BC0004F0280914A0290914B02281739070CF07E
:101BD000BCCF80913F0290914002873E910508F46E
:101BE000B1CF80913F0290914002019790934002C3
:101BF00080933F02A7CF20914C0230914D028091FB
:101C0000480290914902281739070CF07ACF809149
:101C10003D0290913E02873E910508F280913D027F
:101C200090913E02019790933E0280933D02B7CF80
:101C300010926002109261021092540210925502AA
:101C400010925602109257021092580210925902A6
:101C500010925A0210925B0289E591E090933E0245
:101C600080933D029093400280933F020E944D0B6F
:101C700082E069E571E00E94580B83E069E571E05C
:101C80000E94580B0E940F1081E090E00E94C9054D
:101C90000E94151081E090E00E94C90508950E94FD
:101CA000151010924D0210924C0210924F02109299
:101CB0004E02089580915C02811108950E94511096
:101CC000909581959F4F909351028093500281E0AF
:101CD00090E00E94C9050E946C10909581959F4FDD
:101CE000909353028093520281E090E00E94C905D4
:101CF0000E944F0E81E080935C022091500230914F
:101D00005102442737FD4095542F80915402909101
:101D10005502A0915602B0915702820F931FA41F43
:101D2000B51F8093540290935502A0935602B0932E
:101D300057022091520230915302442737FD4095BB
:101D4000542F8091580290915902A0915A02B0915B
:101D50005B02820F931FA41FB51F809358029093BC
:101D60005902A0935A02B0935B0210925102109252
:101D700050021092530210925202AFEEB2E0E0ED28
:101D8000F1E086E101900D928150E1F78FEE92E053
:101D90000E94960582E390E00E940B06089580E081
:101DA00069E571E00E949E0B10924D0210924C0268
:101DB00010924F0210924E02089580914C02909121
:101DC0004D0280914E0290914F02AFEEB2E0E6EEEE
:101DD000F1E080E101900D928150E1F70E949605BB
:101DE0000E94CF0E84EF91E00E940B060E945110DA
:101DF000909581959F4F909351028093500281E07E
:101E000090E00E94C9050E946C10909581959F4FAB
:101E100090935302809352020E944F0E85E090E00F
:101E20000E94C9052091500230915102442737FD8C
:101E30004095542F8091540290915502A0915602E2
:101E4000B0915702820F931FA41FB51F80935402B5
:101E500090935502A0935602B093570220915202DC
:101E600030915302442737FD4095542F80915802FA
:101E700090915902A0915A02B0915B02820F931F78
:101E8000A41FB51F8093580290935902A0935A0241
:101E9000B0935B02109249021092480210924B02DA
:101EA00010924A020E945110909581959F4F9093F5
:101EB00051028093500281E090E00E94C9050E9487
:101EC0006C10909581959F4F90935302809352028E
:101ED00081E090E00E94C90508950E9451109095FC
:101EE00081959F4F909351028093500281E090E042
:101EF0000E94C9050E946C10909581959F4F909308
:101F000053028093520281E090E00E94C9058091C3
:101F10005F02882309F078C080915C028823D1F5A4
:101F200080913C028823E1F580915002909151020A
:101F300097FD6DC089599A434CF48091520290915B
:101F4000530297FD68C089599A4314F00E94DD0E30
:101F50000E941B10909581959F4F9093490280930A
:101F6000480281E090E00E94C9050E9436109095D9
:101F700081959F4F90934B0280934A0281E090E0BD
:101F80000E94C90580914702882309F408950E94A0
:101F9000E30C08950E94AA0180913C02882321F25B
:101FA0008091500290915102909581959F4FAA2760
:101FB00097FDA095BA2F8093540290935502A09359
:101FC0005602B0935702809152029091530290951D
:101FD00081959F4FAA2797FDA095BA2F809358020D
:101FE00090935902A0935A02B0935B0210923C0264
:101FF000AFEEB2E0E6EFF1E089E001900D928150A2
:10200000E1F70E94960590CF0E945A0E89CF9095D5
:1020100081959F4F8FCF909581959F4F94CF82E36D
:1020200060E070E00E94C803089588E260E070E01C
:102030000E94C80308950F931F9382E160E070E04F
:102040000E94C80380E090E00E94D40380E090E00A
:102050000E94D403182F00E080E090E00E94D40397
:10206000080F191FC8011F910F9108950F931F9317
:1020700081E160E070E00E94C80380E090E00E948F
:10208000D40380E090E00E94D403182F00E080E0A9
:1020900090E00E94D403080F191FC8011F910F91EF
:1020A00008950F931F938AE060E070E00E94C803D8
:1020B00080E090E00E94D40380E090E00E94D4038E
:1020C000182F00E080E090E00E94D403080F191F51
:1020D000C8011F910F9108950F931F9389E060E04D
:1020E00070E00E94C80380E090E00E94D40380E08A
:1020F00090E00E94D403182F00E080E090E00E945E
:10210000D403080F191FC8011F910F910895FB01F7
:10211000DC014150504048F001900D920020C9F779
:1021200001C01D9241505040E0F70895AEE0B0E08C
:10213000ECE9F0E10C94C8130D891E8986E08C83CC
:102140001A8309838FEF9FE79E838D839E01275E0D
:102150003F4FCE0101966F89788DA9010E94BA1078
:102160002F813885020F131FF80110822E96E4E0AC
:102170000C94E413ABE0B0E0E0ECF0E10C94BA13A3
:102180003C012B015A01FC0117821682838181FDDB
:1021900003C06FEF7FEFC6C19AE0892E1E0108943D
:1021A000211C311CF3012381F20123FD859123FFC2
:1021B00081912F01882309F4B2C1853239F423FDBE
:1021C000859123FF81912F01853229F490E0B3019D
:1021D0000E94AD12E7CF982FFF24EE249924FFE14F
:1021E000FF15D0F09B3269F09C3228F4903259F000
:1021F000933291F40EC09D3249F0903369F441E07E
:1022000024C052E0F52A84E0F82A28C098E0F92A90
:1022100025C0E0E1FE2A22C0F7FC29C0892F8053A7
:102220008A3070F4F6FE05C0989C902C1124980E0C
:1022300015C0E89CE02C1124E80EF0E2FF2A0EC045
:102240009E3229F4F6FC6BC140E4F42A07C09C36A8
:1022500019F450E8F52A02C0983649F4F20123FD3A
:10226000959123FF91912F01992309F0B8CF892FE0
:102270008554833018F08052833038F444E050E0C5
:10228000A40EB51E5FE359830FC0933631F0933728
:1022900079F0933509F056C020C0F501808189831B
:1022A00042E050E0A40EB51E610101E010E012C052
:1022B000F501C080D180F6FC03C06FEF7FEF02C054
:1022C000692D70E042E050E0A40EB51EC6010E94E8
:1022D000A2128C015FE7F52214C0F501C080D18005
:1022E000F6FC03C06FEF7FEF02C0692D70E042E0A3
:1022F00050E0A40EB51EC6010E9497128C0150E852
:10230000F52AF3FE07C01AC080E290E0B3010E94F4
:10231000AD12EA948E2D90E008171907A8F30EC0AD
:10232000F601F7FC8591F7FE81916F0190E0B30112
:102330000E94AD12E110EA94015010400115110500
:1023400079F7EAC0943611F0993669F5F7FE08C0BE
:10235000F501208131814281538184E090E00AC0FF
:10236000F501808191819C01442737FD4095542FD0
:1023700082E090E0A80EB91E9FE6F92257FF09C03F
:1023800050954095309521953F4F4F4F5F4FE0E876
:10239000FE2ACA01B901A1012AE030E00E94D91247
:1023A000D82ED21840C0953729F41F2D1F7E2AE061
:1023B00030E01DC01F2D197F9F3661F0903720F44B
:1023C000983509F0ACC00FC0903739F0983709F054
:1023D000A6C004C028E030E00AC0106114FD1460FB
:1023E00020E130E004C014FD166020E132E017FF68
:1023F00008C0F501608171818281938144E050E0E1
:1024000008C0F50180819181BC0180E090E042E04C
:1024100050E0A40EB51EA1010E94D912D82ED218E8
:102420008FE7F82EF122F6FE0BC05EEFF522D914ED
:1024300038F4F4FE07C0F2FC05C08FEEF82202C0AB
:102440001D2D01C0192DF4FE0DC0FE01ED0DF11D75
:102450008081803319F499EEF92208C01F5FF2FEE3
:1024600005C003C08F2D867809F01F5F0F2DF3FC88
:1024700014C0F0FE0FC01E1510F09D2C0BC09D2C3B
:102480009E0C911A1E2D06C080E290E0B3010E94BE
:10249000AD121F5F1E15C0F304C01E1510F4E11A23
:1024A00001C0EE2404FF0FC080E390E0B3010E945E
:1024B000AD1202FF1DC001FD03C088E790E00EC011
:1024C00088E590E00BC0802F867891F001FF02C074
:1024D0008BE201C080E2F7FC8DE290E0B3010E9444
:1024E000AD1206C080E390E0B3010E94AD129A9451
:1024F000D914C0F3DA94F101ED0DF11D808190E063
:10250000B3010E94AD12DD20A9F706C080E290E081
:10251000B3010E94AD12EA94EE20C1F743CEF3015D
:1025200066817781CB012B96E2E10C94D613FC01F6
:102530000590615070400110D8F7809590958E0FEE
:102540009F1F0895FC016150704001900110D8F761
:10255000809590958E0F9F1F08950F931F93CF9393
:10256000DF938C01EB018B8181FF1BC082FF0DC0CB
:102570002E813F818C819D812817390764F4E88181
:10258000F9810193F983E88306C0E885F985802FF6
:102590000995892B31F48E819F8101969F838E83CB
:1025A00002C00FEF1FEFC801DF91CF911F910F9174
:1025B0000895FA01AA27283051F1203181F1E894D9
:1025C0006F936E7F6E5F7F4F8F4F9F4FAF4FB1E026
:1025D0003ED0B4E03CD0670F781F891F9A1FA11D21
:1025E000680F791F8A1F911DA11D6A0F711D811D22
:1025F000911DA11D20D009F468943F912AE0269FE7
:1026000011243019305D3193DEF6CF010895462F45
:102610004770405D4193B3E00FD0C9F7F6CF462F26
:102620004F70405D4A3318F0495D31FD405241938F
:1026300002D0A9F7EACFB4E0A6959795879577954C
:102640006795BA95C9F700976105710508959B01D3
:10265000AC010A2E06945795479537952795BA955C
:10266000C9F7620F731F841F951FA01D0895629FF5
:10267000D001739FF001829FE00DF11D649FE00D7A
:10268000F11D929FF00D839FF00D749FF00D659FDB
:10269000F00D9927729FB00DE11DF91F639FB00DDA
:1026A000E11DF91FBD01CF0111240895AA1BBB1B19
:1026B00051E107C0AA1FBB1FA617B70710F0A61B42
:1026C000B70B881F991F5A95A9F780959095BC0163
:1026D000CD01089597FB092E07260AD077FD04D077
:1026E000E5DF06D000201AF4709561957F4F0895BC
:1026F000F6F7909581959F4F089597FB092E052633
:102700000ED057FD04D014D00AD0001C38F45095D8
:102710004095309521953F4F4F4F5F4F0895F6F705
:1027200090958095709561957F4F8F4F9F4F08953D
:10273000A1E21A2EAA1BBB1BFD010DC0AA1FBB1FC5
:10274000EE1FFF1FA217B307E407F50720F0A21B37
:10275000B30BE40BF50B661F771F881F991F1A94A4
:1027600069F760957095809590959B01AC01BD01CE
:10277000CF0108952F923F924F925F926F927F9276
:102780008F929F92AF92BF92CF92DF92EF92FF9281
:102790000F931F93CF93DF93CDB7DEB7CA1BDB0B2D
:1027A0000FB6F894DEBF0FBECDBF09942A883988D2
:1027B00048885F846E847D848C849B84AA84B984D9
:1027C000C884DF80EE80FD800C811B81AA81B981E5
:1027D000CE0FD11D0FB6F894DEBF0FBECDBFED01F9
:0627E0000895F894FFCFFC
:1027E60040256C6420256C64202564202564202502
:1027F60064202564202575202575202575202575DE
:102806002025750A0D0021724F4E0A0D0021724FC8
:1028160046460A0D0021725F69675F4F420A0D0046
:1028260021725F6E695F4F420A0D00216D61783D2E
:1028360025640A0D0021666C61675F4F46460A0DE6
:102846000021666C61675F4F4E0A0D002172656458
:102856005F7377697463685F72656C6561736564DD
:102866000A0D00216F62730A0D002120736D656CDD
:1028760079207A616A6B6F0A0D00191E50020202F6
:102886000000000300000000C803D4030000720229
:1028960072020100000000030000000014040C0492
:1028A6000000013118FC18FC18FC18FC0A000A008C
:1028B600217265642073776974636820707265732A
:1028C6007365640A0D00216E65656420612062727D
:1028D60065616B0A0D002172657365740A0D00004F
:00000001FF
