:100000000C9446000C9465000C9465000C946500FB
:100010000C9465000C94E3080C9443090C9465005F
:100020000C9465000C9465000C9465000C946500BC
:100030000C9465000C9465000C9465000C943706D4
:100040000C9465000C9465000C9465000C9465009C
:100050000C9465000C9410030C9465000C946500DE
:100060000C9465000C9465000C9465000C9465007C
:100070000C9465000C9494050C94EA040C946500AF
:100080000C947C030C9465000C94650011241FBE35
:10009000CFEFD0E1DEBFCDBF11E0A0E0B1E0ECE1F9
:1000A000F5E200E00BBF02C007900D92A23FB1073E
:1000B000D9F713E0A2EFB1E001C01D92A138B1075A
:1000C000E1F70E9405030C948C120C940000CF926F
:1000D000DF92EF92FF920F931F9320913F02309196
:1000E00040024091410250914202E0904302F09060
:1000F00044020091450210914602609133027091D2
:100100003402C0903502D09036028DB79EB74E971C
:100110000FB6F8949EBF0FBE8DBFEDB7FEB73196F8
:100120008AED92E0ADB7BEB712969C938E9311976D
:1001300080E091E09383828380913B0290913C0226
:10014000AA2797FDA095BA2F820F931FA41FB51F52
:1001500084839583A683B78380913D0290913E026C
:10016000AA2797FDA095BA2F8E0D9F1DA01FB11F26
:1001700080879187A287B38775876487D786C6866D
:1001800080914702808B118A80914802828B138A6A
:100190008091F4019091F501958B848B8091F6010B
:1001A0009091F701978B868B8091F8019091F901DE
:1001B000918F808F8091FA019091FB01938F828FB4
:1001C0008091FC019091FD01958F848F0E94310FE9
:1001D0008DB79EB74E960FB6F8949EBF0FBE8DBFDB
:1001E0000E941F051F910F91FF90EF90DF90CF901D
:1001F00008959091130280917D019817B1F080913C
:1002000013028823C9F1AAEDB2E0E6E2F1E087E04B
:1002100001900D928150E1F70E941F0581E08093CB
:1002200032028091130280937D019091140280919B
:100230007C019817B1F080911402882399F0AAEDFF
:10024000B2E0E5E3F1E08BE001900D928150E1F73F
:100250000E941F0581E080933202809114028093F6
:100260007C010895AAEDB2E0E0E4F1E08BE00190BA
:100270000D928150E1F7ECCFAAEDB2E0EDE2F1E0B2
:1002800088E001900D928150E1F70E941F051092C5
:100290007A03109279030E94310DC3CFAAEDB2E028
:1002A000EBE4F1E087E101900D928150E1F70E94CB
:1002B0001F058AE090E00E945205109247020895BF
:1002C00086EE0E940F078EE090E00E94520580911A
:1002D0005703909158039093F9018093F80149973F
:1002E00030F488EC90E09093F9018093F8018091CC
:1002F000F301880F8E510E940F078EE090E00E945C
:1003000052052091F301E22FF0E080915703909184
:100310005803EE0FFF1FEC50FE4F918380830A9726
:1003200020F488EC90E091838083822F8F5F80930C
:10033000F301823009F46EC0853009F45DC080910C
:100340007901992787FD90952091F4013091F5016D
:100350002817390760F080917A01992787FD9095D9
:100360002091F6013091F70128173907C8F48091E0
:10037000F2018B5F8093F20180310CF440C08FE07A
:100380008093F20180914902882329F480914802E8
:10039000882309F443C081E090E00E94520508954B
:1003A00080917B01992787FD90952091F8013091EC
:1003B000F90128173907D8F280917A01992787FD2A
:1003C00090952091FA013091FB012817390778F2B6
:1003D00080917901992787FD90952091FC013091BA
:1003E000FD012817390718F28091F201882349F09E
:1003F00081508093F201C0CF1092F301A0CF8823E7
:1004000051F680914802882331F2109248020E94EE
:10041000450BC1CF83E08093F30191CF0E94310D52
:1004200081E080934802AAEDB2E0E2E6F1E087E0E5
:1004300001900D928150E1F70E941F05ACCF1F93F0
:1004400028E10FB6F89421BD11BC0FBE32E0309305
:10045000640081E08093650080E285BB90EF9ABBE9
:100460008FE08BBB86EF87BB28BB92BB21BB84E0B0
:1004700082B913B888E08093610085E08ABF80E389
:1004800089BF3FBD2EBD30938B0020938A008EB56F
:1004900082608EBD8EB581608EBD80918A00816044
:1004A00080938A008FB588628FBD80E092E197BD0E
:1004B00086BD80EA9FE090938100809380008091C8
:1004C0007D00846080937D0089E591E09BBD8ABDBD
:1004D00099BD88BD909379008093780090938700B0
:1004E000809386009093850080938400909383008E
:1004F0008093820027E023BF8FE881BF37BF1BB8FE
:1005000080E18AB996E0909395008FE289B988EDF1
:1005100080939A0090939D0020939900789484EFA3
:1005200091E00E9452050E947A0C0E949A078CEB7F
:1005300092E00E94520512EE812F64E60E94C106ED
:10054000812F69E00E94D40683E090E00E9452056A
:100550001E5F1C3E89F78BB38F7080618BBB82E37B
:1005600090E00E9452058BB38F7080638BBB8CE34D
:1005700090E00E9452058BB38F7080628BBB86E443
:1005800090E00E9452058BB38F7080668BBB80E534
:1005900090E00E9452058BB38F7080648BBB8AE51C
:1005A00090E00E9452058BB38F70806C8BBB84E609
:1005B00090E00E9452058BB38F7080688BBB8EE6F3
:1005C00090E00E9452058BB38F708BBB0E946A052E
:1005D00082E991E090937E0380937D0390937C0366
:1005E00080937B0310924A02AAEDB2E0E9E6F1E0C3
:1005F00080E101900D928150E1F70E941F0580E299
:1006000093E00E9452051F9108950E941F020E94CC
:10061000F9000E9460010E94F50D0E946700F7CF6B
:100620001F920F920FB60F920BB60F9211242F93B9
:100630003F938F939F93EF93FF932091FF01E22FBE
:10064000F0E084B195B1EE0FFF1FE35BFD4F9183A6
:100650008083273051F1822F8F5F8093FF01883094
:1006600001F18730A9F0E82F3E983E9A87B1807E4D
:100670008E2B87B9369AFF91EF919F918F913F9181
:100680002F910F900BBE0F900FBE0F901F901895DB
:100690003E9887B1806C87B9E7E0E8CF8BB3806F75
:1006A0008BBB1092FF01E0E0DFCF80915B02909165
:1006B0005C028751924078F68091FE018F5F8093B3
:1006C000FE01843659F3883C61F78BB38F708BBB86
:1006D0001092FE01E6CF5498539A5D9BFECF8CB9E1
:1006E0005E9BFECF5398549A80E090E008955F9B04
:1006F000FECF8CB190E008951F920F920FB60F922B
:100700000BB60F9211248F939F93EF93FF93E09179
:100710008E01F0918F0180918C0190918D01E817ED
:10072000F90788F081E090E0909391018093900127
:10073000FF91EF919F918F910F900BBE0F900FBE85
:100740000F901F90189580919B0085FFFCCF8191A1
:1007500080939C00F0938F01E0938E01E9CF80910C
:100760009B0087FFFCCF80919C0090E00895982F1C
:1007700080919B0085FFFCCF90939C0080E090E0EF
:10078000089580919B0085FFFCCFE0918E01F09150
:100790008F01819180939C00F0938F01E0938E01F3
:1007A0000895482F8B3309F449C08091A001882314
:1007B00099F0493609F40AC14A360CF47FC0423731
:1007C00009F4DBC0433709F4DFC04F3609F4D2C067
:1007D00080E280930102089580910502882369F1E7
:1007E0004D3209F4C3C0842F80538A30D8F48091ED
:1007F0000302909104029C01220F331F220F331F2A
:10080000220F331F880F991F280F391F20533040A4
:10081000842F992787FD9095280F391F3093040264
:10082000209303029BB3809100028F5F80930002AC
:100830008295807F9F70892B8BBB089581E0809388
:10084000A00180910102833609F486C084360CF43D
:1008500049C0843609F453C0833779F720910302E5
:10086000309104022B30310514F02AE030E0809101
:100870000202992787FD9095829FA001839F500DCA
:10088000929F500D112450930402409303028091D3
:100890007A03992787FD90954817590749F0809169
:1008A0001302882329F440937A0381E08093320273
:1008B000109205028BB38F708BBB0895433631F0D5
:1008C000443609F475C0423609F082CF40930102E4
:1008D0001092A001109204021092030281E0809312
:1008E00005020895823609F0A8CF80910302809313
:1008F0007B018BB38F708BBB109205020895209102
:100900000302309104022135310514F020E530E076
:1009100080910202992787FD9095829FA001839F75
:10092000500D929F500D11245093040240930302E6
:1009300080917903992787FD90954817590709F405
:10094000B7CF80911302882309F0B2CF4093790387
:1009500081E080933202ACCF8091030280937A01D0
:100960008BB38F708BBB1092050208958FEF80932D
:10097000020258CF10924902089581E08093270225
:1009800080E2809301020895409301021092A00139
:10099000109204021092030291E09093050290934A
:1009A00002028BB38F7080618BBB9093000208951D
:1009B000409301021092A0011092040210920302CF
:1009C00081E08093050280930202089581E0809384
:1009D000490208951F920F920FB60F920BB60F9215
:1009E00011242F933F934F935F936F937F938F9334
:1009F0009F93AF93BF93EF93FF9380919B0087FFEB
:100A0000FCCF80919C000E94D103FF91EF91BF9198
:100A1000AF919F918F917F916F915F914F913F9196
:100A20002F910F900BBE0F900FBE0F901F90189537
:100A3000949888EE93E00E945205949A08958091CC
:100A4000900190919101892BD1F310929101109214
:100A50009001EAEDF2E001900020E9F73197EA5DBC
:100A6000F2404E2FEE3708F04DE750E0CA01835AAE
:100A70009D4F90938D0180938C018DE592E06AEDFE
:100A800072E00E94220F80919B0085FFFCCF809135
:100A90005D0280939C008EE592E090938F0180939D
:100AA0008E010895009739F026E63EE0F90131976E
:100AB000F1F70197D9F70895982F80538A3038F0CD
:100AC0009062892F8156863018F4892F87550895B2
:100AD0008FEF0895E199FECF1FBA1EBAE09A8DB349
:100AE0008F3F29F08093A1018091A1010895E199A0
:100AF000FECF1FBA1EBA81E38DBB0FB6F894E29AFF
:100B0000E19A0FBE8093A1018091A1010895E1991E
:100B1000FECF1FBA1EBA8DBB0FB6F894E29AE19AC7
:100B20000FBE8093A10108951F920F920FB60F92EE
:100B300011242F933F934F935F936F938F939F93C2
:100B400080B180930C028093090290B191709093D0
:100B50000D0260B1627060930E0280910A029817D4
:100B600051F090930A029923F1F18CB59DB59093C1
:100B7000A3018093A20180910B02681751F060934A
:100B80000B02662391F08CB59DB59093A5018093DF
:100B9000A4019F918F916F915F914F913F912F9100
:100BA0000F900FBE0F901F9018952CB53DB5309348
:100BB000100220930F024091A4015091A501241727
:100BC00035077CF1241B350B3093100220930F0264
:100BD00080910F029091100221E08C329207BCF5B7
:100BE00010921402D0CF2CB53DB530931002209353
:100BF0000F024091A2015091A30124173507E4F0A0
:100C0000241B350B3093100220930F0280910F02AA
:100C10009091100221E08C3292070CF51092130291
:100C2000A4CF86B597B5820F931F841B950B909325
:100C3000100280930F02CCCF86B597B5820F931F19
:100C4000841B950B9093100280930F02DFCF8A587C
:100C500092400CF098CF81E08093140294CF8A5890
:100C600092400CF082CF81E0809313027ECF1F92DE
:100C70000F920FB60F920BB60F9211242F933F9342
:100C80004F935F936F937F938F939F93AF93BF9394
:100C9000EF93FF9312BE809108028F5F809308024A
:100CA0008639B1F1883961F19D991FC080914A025E
:100CB000882331F481E080934A028BB3806F8BBB31
:100CC0000E94DA0BFF91EF91BF91AF919F918F91AD
:100CD0007F916F915F914F913F912F910F900BBE3C
:100CE0000F900FBE0F901F90189580914A02882395
:100CF00039F310924A028BB38F7080688BBBE0CFC0
:100D00001092080280916500826080936500CCCFCC
:100D1000809165008D7F80936500C6CFEF92FF9232
:100D20000F931F93DF93CF9300D0CDB7DEB7F82E8C
:100D3000E62E198280EA8A838F2D62E08E010F5F92
:100D40001F4FA8010E94FE078AEA8A838F2D62E066
:100D5000A8010E94FE0785EA8A838F2D62E0A80120
:100D60000E94FE07EA828F2D62E0A8010E94FE0722
:100D70000F900F90CF91DF911F910F91FF90EF9007
:100D80000895DF93CF9300D0CDB7DEB792E099837B
:100D90006A8362E0AE014F5F5F4F0E94FE070F90D3
:100DA0000F90CF91DF910895DF93CF9300D0CDB70F
:100DB000DEB791E099836A8362E0AE014F5F5F4FD7
:100DC0000E94FE070F900F90CF91DF910895FF9240
:100DD0000F931F93DF93CF930F92CDB7DEB7F82E0B
:100DE000198261E08E010F5F1F4FA8010E94FE076C
:100DF0008F2D61E0A8010E946C0889818F3F39F036
:100E00000F90CF91DF911F910F91FF90089580E097
:100E10000F90CF91DF911F910F91FF900895CF9286
:100E2000DF92EF92FF920F931F93DF93CF9300D047
:100E300000D0CDB7DEB7182F8FEF90E09093580316
:100E4000809357031B8281E58C8393E0E92EF12C7C
:100E5000EC0EFD1E812F62E0A7010E94FE0786E6D0
:100E60009EE00197F1F700E086E6C82E8EE0D82ECE
:100E70001B82812F61E0A7010E94FE07812F61E0A4
:100E8000A7010E946C08C6010197F1F70F5F0E31B0
:100E900051F18B81882361F30E3128F583E08B8338
:100EA000812F61E0A7010E94FE07812F61E0AE0162
:100EB0004F5F5F4F0E946C0882E08B83812F61E05F
:100EC000A7010E94FE07812F61E0AE014E5F5F4FD8
:100ED0000E946C089A8180E02981820F911D909375
:100EE0005803809357030F900F900F900F90CF915E
:100EF000DF911F910F91FF90EF90DF90CF900895B9
:100F0000BC01809171008E7F80937100809171008F
:100F10008D7F8093710089E999E30E94F11160311E
:100F200030F0862F90E0409795958795682F6093D5
:100F300070000895909A919A84E690E00E9480074C
:100F4000E4E7F0E0808184608083109212021092C6
:100F5000110280818E7F8083808180648083789479
:100F60000895E4E7F0E080818F70806A80830895BF
:100F7000E4E7F0E080818F70806D80830895809336
:100F80007300E4E7F0E080818F70806880830895CB
:100F9000882339F4809174008F7080688093740086
:100FA0000895809174008F70806C80937400089510
:100FB000809173000895809171000895209111022D
:100FC00030911202C901089520E03DE703C021508D
:100FD000304049F08091740087FFF9CF1216130654
:100FE00014F481E0089588E08093620088EC90E03A
:100FF0000E9452051092620080E00895982FFA0135
:10100000809174008F70806A8093740020E03DE7C7
:1010100003C021503040C1F18091740087FFF9CFA7
:10102000121613068CF59E7F9093730080917400C6
:101030008F7080688093740020E03DE703C02150EA
:10104000304011F18091740087FFF9CF121613061A
:10105000DCF480917100883139F191E08091740065
:101060008F70806D8093740020E137E206C02150BC
:1010700030408FEF2F3F380739F08091740084FFA4
:10108000F6CF1216130654F088E08093620088ECC5
:1010900090E00E9452051092620091E0892F08951D
:1010A000121613068CF761506623A1F0819180938C
:1010B0007300809174008F7080688093740020E0CA
:1010C0003DE703C021503040F9F28091740087FD64
:1010D000E7CFF8CF90E0C2CFCF93DF93982FEA010C
:1010E000809174008F70806A8093740020E03DE7E7
:1010F00004C02150304009F447C08091740087FF3C
:10110000F8CF121613060CF03FC091609093730055
:10111000809174008F7080688093740020E03DE7B8
:1011200003C02150304081F18091740087FFF9CFD6
:10113000121613064CF580917100803491F091E005
:10114000809174008F70806D80937400892FDF917F
:10115000CF91089512161306BCF480917300899301
:1011600061506230F8F0809174008F70806C8093D1
:10117000740020E03DE703C02150304029F0809109
:10118000740087FDE7CFF8CF88E08093620088EC99
:1011900090E00E9452051092620091E0892FDF9149
:1011A000CF910895809174008F708068809374004F
:1011B0000E94E407882329F080917300888390E0DF
:1011C000BFCF91E0EBCF1F920F920FB60F92112479
:1011D0002F933F934F935F936F937F938F939F933F
:1011E000AF93BF934CB55DB52091150230911602B7
:1011F00042175307C4F566B577B5640F751F621BB8
:10120000730B5093160240931502809113028823AA
:10121000D9F00C9919C09B0121563140273931056D
:1012200034F58FEF2A36380724F520E030E080913E
:101230007A03992787FD90952817390729F020937D
:101240007A0381E080933202BF91AF919F918F9199
:101250007F916F915F914F913F912F910F900FBEB2
:101260000F901F901895BA01621B730BCACF20E034
:1012700030E088279927821B930B66E070E00E947C
:1012800005129B01D4CF1F920F920FB60F9211241B
:101290002F933F934F935F936F937F938F939F937E
:1012A000AF93BF932CB53DB5809117029091180272
:1012B00028173907C4F546B557B5420F531F481BC9
:1012C000590B309318022093170280911302882340
:1012D000D9F00D9919C0CA018E5591408D389105EC
:1012E00034F52FEF8437920724F520E030E0809129
:1012F0007903992787FD90958217930729F020930A
:10130000790381E080933202BF91AF919F918F91D9
:101310007F916F915F914F913F912F910F900FBEF1
:101320000F901F901895A901481B590BCACF80E058
:1013300090E022273327281B390BA90137FD0FC066
:101340004E5C5F4F429FC001439F900D529F900D96
:10135000112464EB70E00E9405129B01C8CF442762
:101360005527421B530BECCFE9E1F2E089E591E010
:101370008193919322E0E732F207D1F7089592E149
:101380006130790710F060507241E82FF0E0EE0F05
:10139000FF1FE75EFD4F71836083833089F18430E6
:1013A00048F0853029F1853060F4709387006093B0
:1013B00086000895813009F1823030F079BD68BD32
:1013C0000895863081F0089579BD68BD70937900E5
:1013D0006093780070931E0260931D027093200248
:1013E00060931F02089570938300609382000895B4
:1013F000709385006093840008957BBD6ABD089555
:10140000709379006093780008952F923F924F92E5
:101410005F926F927F928F929F92AF92BF92CF9284
:10142000DF92EF92FF920F931F93DF93CF93CDB78D
:10143000DEB762970FB6F894DEBF0FBECDBFF82EB1
:101440007A8B698B882309F0D5C020911D023091D9
:101450001E022617370708F4FCC04FEF5FEFA0907D
:101460001F02B0902002E988FA88AE14BF0408F485
:10147000F3C0CC24CA94DC2C890189899A89081B81
:10148000190B17FDF3C04501A989BA898A1A9B0A6D
:1014900097FCF6C0C401081519050CF4C8011C011D
:1014A000442437FC4094542C1214130414041504DF
:1014B0000CF082C0C901AA2797FDA095BA2F898395
:1014C0009A83AB83BC83BA01882777FD8095982FD8
:1014D0009801442737FD4095542F75010027F7FCEC
:1014E0000095102FED86FE860F87188B760100275A
:1014F000F7FC0095102F5401CC24B7FCC094DC2CD1
:101500000E94D21169877A878B879C87C801B701AF
:10151000A60195010E94D2116D837E838F839887E7
:10152000662477244301AA24BB246501EE24FF240A
:101530008701C601B501A20191010E94181289819B
:101540009A81AB81BC81280F391F4A1F5B1F82E043
:10155000B9010E94BF09C801B701A20191010E940F
:1015600018128D859E85AF85B889280F391F4A1FAF
:101570005B1F83E0B9010E94BF098CE090E00E94EC
:1015800052050894611C711C811C911C89859A85E7
:10159000AB85BC85A80EB91ECA1EDB1E8D819E813F
:1015A000AF81B885E80EF91E0A1F1B1F6214730471
:1015B000840495040CF4BDCF80E069897A890E9487
:1015C000BF0962960FB6F894DEBF0FBECDBFCF91B4
:1015D000DF911F910F91FF90EF90DF90CF90BF9020
:1015E000AF909F908F907F906F905F904F903F90C3
:1015F0002F90089590E0880F991FFC01E75EFD4F42
:1016000060817181A989BA896A177B07F8F0E98935
:10161000FA89E617F707A9F20FEF1FEF29E1C22EAB
:1016200022E0D22EC80ED91E600F711F8F2D0E948E
:10163000BF098CE090E00E945205D6016D917C912B
:10164000E989FA896E177F0779F7BBCF01E010E0CF
:10165000E5CF41E050E003CF61E0C62ED12C8901F7
:1016600089899A89081B190B17FF0DCF10950195D1
:101670001F4F4501A989BA898A1A9B0A97FE0ACF8A
:10168000909481949108939405CF80914802882387
:1016900029F080914902882309F471C080914702A2
:1016A000882309F06BC08091790387FD72C028E21E
:1016B00030E03093380220933702809179039927E4
:1016C00087FD9095281B390B30933A0220933902FD
:1016D00080917A032091370230913802992787FD53
:1016E0009095AC01429FC001439F900D529F900D79
:1016F00011249093380280933702809137029091A1
:1017000038024496909338028093370280913702D2
:101710009091380268E270E00E94051270933802DE
:101720006093370280917A032091390230913A0216
:10173000992787FD9095AC01429FC001439F900D72
:10174000529F900D112490933A0280933902809118
:10175000390290913A02449690933A02809339026A
:101760008091390290913A0268E270E00E9405127D
:1017700070933A0260933902109232020895809178
:1017800014028823D9F380914702882309F48BCF70
:10179000F5CF80917903992787FD9095889690934E
:1017A00038028093370288E290E090933A02809367
:1017B00039028ECF80914B028823C1F180914B0278
:1017C000815080934B0280914C02882309F051C0D4
:1017D0002091390230913A0280913502909136027F
:1017E000821793070CF04BC080912A0290912B0234
:1017F0008C5C914048F480912A0290912B020196D2
:1018000090932B0280932A0283E080934C02609194
:101810002A0270912B0283E00E94BF096091280286
:101820007091290282E00E94BF0908952091370239
:1018300030913802809133029091340282179307DD
:10184000E4F580912802909129028C5C914048F443
:101850008091280290912902019690932902809309
:10186000280283E080934B0280914C02882309F484
:10187000AFCF80914C02815080934C02C8CF209111
:10188000390230913A028091350290913602281740
:1018900039070CF0BCCF80912A0290912B02873E31
:1018A000910508F4B1CF80912A0290912B02019703
:1018B00090932B0280932A02A7CF20913702309178
:1018C00038028091330290913402281739070CF0C6
:1018D0007ACF8091280290912902873E910508F2E3
:1018E0008091280290912902019790932902809378
:1018F0002802B7CF10924B0210924C0210923F0276
:101900001092400210924102109242021092430241
:1019100010924402109245021092460289E591E02D
:10192000909329028093280290932B0280932A029D
:101930000E94B40982E069E571E00E94BF0983E07A
:1019400069E571E00E94BF090E94AA0E81E090E063
:101950000E9452050E94B00E81E090E00E94520564
:1019600008950E94B00E1092380210923702109221
:101970003A02109239020895809147028111089528
:101980000E94EC0E909581959F4F90933C0280931E
:101990003B0281E090E00E9452050E94070F909563
:1019A00081959F4F90933E0280933D0281E090E0AD
:1019B0000E9452050E94B10C81E080934702209161
:1019C0003B0230913C02442737FD4095542F8091D3
:1019D0003F0290914002A0914102B0914202820FD9
:1019E000931FA41FB51F80933F0290934002A093C2
:1019F0004102B093420220913D0230913E024427C1
:101A000037FD4095542F8091430290914402A0915C
:101A10004502B0914602820F931FA41FB51F809309
:101A2000430290934402A0934502B0934602109261
:101A30003C0210923B0210923E0210923D02AAED2F
:101A4000B2E0E6EAF1E086E101900D928150E1F723
:101A50008AED92E00E941F0582E390E00E94520509
:101A6000089580E069E571E00E94050A109238024D
:101A70001092370210923A021092390208950F9391
:101A80001F93CF93DF930091370210913802C091DA
:101A90003902D0913A020E94310DAAEDB2E0ECEB8E
:101AA000F1E080E101900D928150E1F70E941F0565
:101AB00088EB9BE00E9452050E94EC0E9095819568
:101AC0009F4F90933C0280933B0281E090E00E9404
:101AD00052050E94070F909581959F4F90933E026B
:101AE00080933D02AAEDB2E0ECECF1E082E10190DE
:101AF0000D928150E1F70E941F050E94B10C84E60F
:101B000090E00E94520520913B0230913C02442714
:101B100037FD4095542F80913F0290914002A09153
:101B20004102B0914202820F931FA41FB51F809300
:101B30003F0290934002A0934102B0934202209151
:101B40003D0230913E02442737FD4095542F80914D
:101B5000430290914402A0914502B0914602820F47
:101B6000931FA41FB51F8093430290934402A09338
:101B70004502B09346021092340210923302109242
:101B80003602109235020E94EC0E909581959F4F7F
:101B900090933C0280933B0281E090E00E945205CA
:101BA0000E94070F909581959F4F90933E028093DE
:101BB0003D0281E090E00E945205109338020093AC
:101BC0003702D0933A02C0933902AAEDB2E0EEEDAB
:101BD000F1E08AE001900D928150E1F70E941F052B
:101BE000DF91CF911F910F9108950E94EC0E909577
:101BF00081959F4F90933C0280933B0281E090E05F
:101C00000E9452050E94070F909581959F4F9093D7
:101C10003E0280933D0281E090E00E945205809157
:101C20004A02882309F08BC080914702882309F07B
:101C30004BC080912702882309F04DC080913B0260
:101C400090913C0297FD7EC0855C99404CF4809158
:101C50003D0290913E0297FD79C0855C994014F059
:101C60000E943F0D0E94B60E90933402809333027F
:101C70008091330290913402909581959F4F90937B
:101C800034028093330281E090E00E9452050E946A
:101C9000D10E909336028093350280913502909157
:101CA0003602909581959F4F90933602809335022E
:101CB00081E090E00E94520580913202882309F46D
:101CC00008950E94450B08950E944E0180912702BD
:101CD000882309F4B3CF80913B0290913C02909508
:101CE00081959F4FAA2797FDA095BA2F80933F0219
:101CF00090934002A0934102B093420280913D0232
:101D000090913E02909581959F4FAA2797FDA095AF
:101D1000BA2F8093430290934402A0934502B0935C
:101D2000460210922702AAEDB2E0E8EEF1E089E067
:101D300001900D928150E1F70E941F057FCF0E9414
:101D4000BC0C77CF909581959F4F7ECF90958195D4
:101D50009F4F83CF82E360E070E00E946B030895A1
:101D600088E260E070E00E946B0308950F931F9378
:101D700082E160E070E00E946B0380E090E00E94EE
:101D8000770380E090E00E947703182F00E080E066
:101D900090E00E947703080F191FC8011F910F914F
:101DA00008950F931F9381E160E070E00E946B0340
:101DB00080E090E00E94770380E090E00E9477034B
:101DC000182F00E080E090E00E947703080F191FB1
:101DD000C8011F910F9108950F931F938AE060E04F
:101DE00070E00E946B0380E090E00E94770380E047
:101DF00090E00E947703182F00E080E090E00E94BE
:101E00007703080F191FC8011F910F9108950F93B1
:101E10001F9389E060E070E00E946B0380E090E037
:101E20000E94770380E090E00E947703182F00E083
:101E300080E090E00E947703080F191FC8011F91EE
:101E40000F910895FB01DC014150504048F0019092
:101E50000D920020C9F701C01D9241505040E0F79B
:101E60000895AEE0B0E0E7E3FFE00C9463120D8963
:101E70001E8986E08C831A8309838FEF9FE79E83F8
:101E80008D839E01275E3F4FCE0101966F89788D2D
:101E9000A9010E94550F2F813885020F131FF801E9
:101EA00010822E96E4E00C947F12ABE0B0E0EBE5FC
:101EB000FFE00C9455123C012B015A01FC011782E2
:101EC0001682838181FD03C06FEF7FEFC6C19AE068
:101ED000892E1E010894211C311CF3012381F2017B
:101EE00023FD859123FF81912F01882309F4B2C13D
:101EF000853239F423FD859123FF81912F018532AD
:101F000029F490E0B3010E944811E7CF982FFF24F5
:101F1000EE249924FFE1FF15D0F09B3269F09C324A
:101F200028F4903259F0933291F40EC09D3249F06A
:101F3000903369F441E024C052E0F52A84E0F82AA5
:101F400028C098E0F92A25C0E0E1FE2A22C0F7FC6B
:101F500029C0892F80538A3070F4F6FE05C0989C02
:101F6000902C1124980E15C0E89CE02C1124E80E4A
:101F7000F0E2FF2A0EC09E3229F4F6FC6BC140E469
:101F8000F42A07C09C3619F450E8F52A02C09836A6
:101F900049F4F20123FD959123FF91912F0199239B
:101FA00009F0B8CF892F8554833018F080528330E0
:101FB00038F444E050E0A40EB51E5FE359830FC02F
:101FC000933631F0933779F0933509F056C020C03D
:101FD000F5018081898342E050E0A40EB51E6101C5
:101FE00001E010E012C0F501C080D180F6FC03C012
:101FF0006FEF7FEF02C0692D70E042E050E0A40E69
:10200000B51EC6010E943D118C015FE7F52214C088
:10201000F501C080D180F6FC03C06FEF7FEF02C0F6
:10202000692D70E042E050E0A40EB51EC6010E948A
:1020300032118C0150E8F52AF3FE07C01AC080E285
:1020400090E0B3010E944811EA948E2D90E00817A9
:102050001907A8F30EC0F601F7FC8591F7FE8191F0
:102060006F0190E0B3010E944811E110EA94015021
:1020700010400115110579F7EAC0943611F0993630
:1020800069F5F7FE08C0F501208131814281538155
:1020900084E090E00AC0F501808191819C01442791
:1020A00037FD4095542F82E090E0A80EB91E9FE6C0
:1020B000F92257FF09C050954095309521953F4F23
:1020C0004F4F5F4FE0E8FE2ACA01B901A1012AE0A3
:1020D00030E00E947411D82ED21840C0953729F4F0
:1020E0001F2D1F7E2AE030E01DC01F2D197F9F3657
:1020F00061F0903720F4983509F0ACC00FC09037EC
:1021000039F0983709F0A6C004C028E030E00AC0D2
:10211000106114FD146020E130E004C014FD16606D
:1021200020E132E017FF08C0F501608171818281F2
:10213000938144E050E008C0F50180819181BC01A9
:1021400080E090E042E050E0A40EB51EA1010E94A4
:102150007411D82ED2188FE7F82EF122F6FE0BC09C
:102160005EEFF522D91438F4F4FE07C0F2FC05C086
:102170008FEEF82202C01D2D01C0192DF4FE0DC0F6
:10218000FE01ED0DF11D8081803319F499EEF922E5
:1021900008C01F5FF2FE05C003C08F2D867809F0CE
:1021A0001F5F0F2DF3FC14C0F0FE0FC01E1510F0C2
:1021B0009D2C0BC09D2C9E0C911A1E2D06C080E2FA
:1021C00090E0B3010E9448111F5F1E15C0F304C0C8
:1021D0001E1510F4E11A01C0EE2404FF0FC080E3C5
:1021E00090E0B3010E94481102FF1DC001FD03C031
:1021F00088E790E00EC088E590E00BC0802F8678DD
:1022000091F001FF02C08BE201C080E2F7FC8DE299
:1022100090E0B3010E94481106C080E390E0B30152
:102220000E9448119A94D914C0F3DA94F101ED0D8B
:10223000F11D808190E0B3010E944811DD20A9F7D3
:1022400006C080E290E0B3010E944811EA94EE20BB
:10225000C1F743CEF30166817781CB012B96E2E192
:102260000C947112FC010590615070400110D8F778
:10227000809590958E0F9F1F0895FC0161507040CE
:1022800001900110D8F7809590958E0F9F1F0895AB
:102290000F931F93CF93DF938C01EB018B8181FF11
:1022A0001BC082FF0DC02E813F818C819D8128172C
:1022B000390764F4E881F9810193F983E88306C062
:1022C000E885F985802F0995892B31F48E819F81CE
:1022D00001969F838E8302C00FEF1FEFC801DF912D
:1022E000CF911F910F910895FA01AA27283051F13B
:1022F000203181F1E8946F936E7F6E5F7F4F8F4F37
:102300009F4FAF4FB1E03ED0B4E03CD0670F781F95
:10231000891F9A1FA11D680F791F8A1F911DA11D7A
:102320006A0F711D811D911DA11D20D009F46894B3
:102330003F912AE0269F11243019305D3193DEF65B
:10234000CF010895462F4770405D4193B3E00FD011
:10235000C9F7F6CF462F4F70405D4A3318F0495DFC
:1023600031FD4052419302D0A9F7EACFB4E0A695DF
:102370009795879577956795BA95C9F70097610501
:10238000710508959B01AC010A2E06945795479557
:1023900037952795BA95C9F7620F731F841F951F4C
:1023A000A01D0895629FD001739FF001829FE00DF0
:1023B000F11D649FE00DF11D929FF00D839FF00DC4
:1023C000749FF00D659FF00D9927729FB00DE11D70
:1023D000F91F639FB00DE11DF91FBD01CF0111244D
:1023E0000895AA1BBB1B51E107C0AA1FBB1FA6175C
:1023F000B70710F0A61BB70B881F991F5A95A9F7AE
:1024000080959095BC01CD01089597FB092E072674
:102410000AD077FD04D0E5DF06D000201AF47095CD
:1024200061957F4F0895F6F7909581959F4F089598
:1024300097FB092E05260ED057FD04D014D00AD0E4
:10244000001C38F450954095309521953F4F4F4FE3
:102450005F4F0895F6F790958095709561957F4F41
:102460008F4F9F4F0895A1E21A2EAA1BBB1BFD019F
:102470000DC0AA1FBB1FEE1FFF1FA217B307E40763
:10248000F50720F0A21BB30BE40BF50B661F771FBB
:10249000881F991F1A9469F760957095809590959B
:1024A0009B01AC01BD01CF0108952F923F924F9245
:1024B0005F926F927F928F929F92AF92BF92CF92D4
:1024C000DF92EF92FF920F931F93CF93DF93CDB7DD
:1024D000DEB7CA1BDB0B0FB6F894DEBF0FBECDBF55
:1024E00009942A88398848885F846E847D848C8426
:1024F0009B84AA84B984C884DF80EE80FD800C812F
:102500001B81AA81B981CE0FD11D0FB6F894DEBF11
:0C2510000FBECDBFED010895F894FFCF81
:10251C0040256C6420256C642025642025642025CE
:10252C0064202564202575202575202575202575AA
:10253C002025750A0D0021724F4E0A0D0021724F95
:10254C0046460A0D0021725F69675F4F420A0D0013
:10255C0021725F6E695F4F420A0D00217265645FE4
:10256C007377697463685F72656C65617365640A1F
:10257C000D00216F62730A0D002120736D656C795B
:10258C00207A616A6B6F0A0D00191E50020200005E
:10259C000003000000006B03770300005D025D0286
:1025AC0001000000000300000000B703AF030000AF
:1025BC00013118FC18FC217265642073776974630F
:1025CC006820707265737365640A0D00216E656511
:1025DC0064206120627265616B0A0D002172657363
:1025EC00657420706F7320746F20300A0D00217297
:1025FC006573756D650A0D002172657365740A0D3E
:02260C000000CC
:00000001FF
