:100000000C9446000C9465000C9465000C946500FB
:100010000C9465000C9433080C9493080C946500C0
:100020000C9465000C9465000C9465000C946500BC
:100030000C9465000C9465000C9465000C94870585
:100040000C9465000C9465000C9465000C9465009C
:100050000C9465000C94B9020C9465000C94650036
:100060000C9465000C9465000C9465000C9465007C
:100070000C9465000C943D050C9493040C9465005D
:100080000C9425030C9465000C94650011241FBE8C
:10009000CFEFD0E1DEBFCDBF11E0A0E0B1E0E8E9F5
:1000A000F3E200E00BBF02C007900D92A23DB10742
:1000B000D9F713E0A2EDB1E001C01D92A835B10758
:1000C000E1F70E94AE020C94CA110C940000CF928A
:1000D000DF92EF92FF920F931F93209116023091BF
:1000E00017024091180250911902E0901A02F09004
:1000F0001B0200911C0210911D0260910A02709176
:100100000B02C0900C02D0900D028DB79EB74E9797
:100110000FB6F8949EBF0FBE8DBFEDB7FEB73196F8
:1001200081EB92E0ADB7BEB712969C938E93119778
:1001300080E091E093838283809112029091130278
:10014000AA2797FDA095BA2F820F931FA41FB51F52
:1001500084839583A683B7838091140290911502BE
:10016000AA2797FDA095BA2F8E0D9F1DA01FB11F26
:1001700080879187A287B38775876487D786C6866D
:1001800080911E02808B118A80911F02828B138ABC
:100190008091D3019091D401958B848B8091D5016E
:1001A0009091D601978B868B8091D7019091D80141
:1001B000918F808F8091D9019091DA01938F828FF6
:1001C0008091DB019091DC01958F848F0E946F0EEE
:1001D0008DB79EB74E960FB6F8949EBF0FBE8DBFDB
:1001E0000E94C8041F910F91FF90EF90DF90CF9075
:1001F00008959091EB0180915F019817B1F0809183
:10020000EB01882399F0A1EBB2E0E6E2F1E087E0B0
:1002100001900D928150E1F70E94C80481E0809323
:1002200009028091EB0180935F010895A1EBB2E098
:10023000EDE2F1E088E001900D928150E1F70E943B
:10024000C80410925103109250030E946F0CE9CF22
:10025000A1EBB2E0E5E3F1E087E101900D9281507E
:10026000E1F70E94C8048AE090E00E94FB0410922B
:100270001E02089586EE0E945F068EE090E00E94C6
:10028000FB0480912E0390912F039093D8018093CB
:10029000D701499730F488EC90E09093D80180938F
:1002A000D7018091D201880F8E510E945F068EE0A7
:1002B00090E00E94FB042091D201E22FF0E0EE0FCB
:1002C000FF1FED52FE4F80912E0390912F039183DB
:1002D00080832F5F2093D201223009F450C0253053
:1002E00009F44AC080915C01992787FD909520917F
:1002F000D3013091D4012817390760F080915D0156
:10030000992787FD90952091D5013091D601281726
:10031000390728F481E090E00E94FB040895809161
:100320005E01992787FD90952091D7013091D801E2
:100330002817390778F380915D01992787FD9095FB
:100340002091D9013091DA012817390718F38091EB
:100350005C01992787FD90952091DB013091DC01AC
:1003600028173907B8F280911F02882399F210925A
:100370001F020E94950ACECF1092D201B3CF83E024
:100380008093D201AFCF1F9328E10FB6F89421BD1F
:1003900011BC0FBE32E03093640081E080936500B1
:1003A00080EC84BB80E285BB90EF9ABB8FE08BBB77
:1003B00086EF87BB28BB92BB21BB84E082B913B810
:1003C00088E08093610080E48093620085E08ABFCA
:1003D00080E389BF3FBD2EBD30938B0020938A0000
:1003E0008EB582608EBD8EB581608EBD80918A0093
:1003F000816080938A008FB588628FBD80E092E132
:1004000097BD86BD80EA9FE0909381008093800035
:1004100080917D00846080937D0089E591E09BBDA3
:100420008ABD99BD88BD90937900809378009093A0
:10043000870080938600909385008093840090933A
:1004400083008093820027E023BF8FE881BF37BFFE
:100450001BB880E18AB996E0909395008FE289B944
:1004600088ED80939A0090939D0020939900789452
:1004700084EF91E00E94FB040E94B80B0E94EA0600
:100480008CEB92E00E94FB0412EE812F64E60E9446
:100490001106812F69E00E94240683E090E00E940B
:1004A000FB041E5F1C3E89F78BB38F7080618BBB92
:1004B00082E390E00E94FB048BB38F7080638BBB60
:1004C0008CE390E00E94FB048BB38F7080628BBB47
:1004D00086E490E00E94FB048BB38F7080668BBB38
:1004E00080E590E00E94FB048BB38F7080648BBB2F
:1004F0008AE590E00E94FB048BB38F70806C8BBB0D
:1005000084E690E00E94FB048BB38F7080688BBB05
:100510008EE690E00E94FB048BB38F708BBB0E9431
:10052000130584E791E090935503809354039093CF
:1005300053038093520310922102A1EBB2E0ECE44A
:10054000F1E080E101900D928150E1F70E94C80432
:1005500080E293E00E94FB041F9108950E94C30172
:100560000E94F9000E943A010E94330D0E94670028
:10057000F7CF1F920F920FB60F920BB60F92112466
:100580002F933F938F939F93EF93FF932091DE01DF
:10059000E22FF0E084B195B1EE0FFF1FEC5DFD4F4F
:1005A00091838083273051F1822F8F5F8093DE010A
:1005B000883001F18730A9F0E82F3E983E9A87B144
:1005C000807E8E2B87B9369AFF91EF919F918F9104
:1005D0003F912F910F900BBE0F900FBE0F901F9069
:1005E00018953E9887B1806C87B9E7E0E8CF8BB368
:1005F000806F8BBB1092DE01E0E0DFCF8091320292
:10060000909133028751924078F68091DD018F5F9F
:100610008093DD01843659F3883C61F78BB38F708A
:100620008BBB1092DD01E6CF5498539A5D9BFECFB1
:100630008CB95E9BFECF5398549A80E090E0089569
:100640005F9BFECF8CB190E008951F920F920FB682
:100650000F920BB60F9211248F939F93EF93FF93FA
:10066000E0917001F091710180916E0190916F01A4
:10067000E817F90788F081E090E090937301809388
:100680007201FF91EF919F918F910F900BBE0F9090
:100690000FBE0F901F90189580919B0085FFFCCF97
:1006A000819180939C00F0937101E0937001E9CFF8
:1006B00080919B0087FFFCCF80919C0090E0089583
:1006C000982F80919B0085FFFCCF90939C0080E049
:1006D00090E0089580919B0085FFFCCFE091700130
:1006E000F0917101819180939C00F0937101E093EE
:1006F00070010895482F8B3309F449C0809182011D
:10070000882399F0493609F40AC14A360CF47FC0AF
:10071000423709F4DBC0433709F4DFC04F3609F430
:10072000D2C080E28093E00108958091E4018823A3
:1007300069F14D3209F4C3C0842F80538A30D8F454
:100740008091E2019091E3019C01220F331F220F5F
:10075000331F220F331F880F991F280F391F205373
:100760003040842F992787FD9095280F391F3093AB
:10077000E3012093E2019BB38091DF018F5F8093BF
:10078000DF018295807F9F70892B8BBB089581E06C
:10079000809382018091E001833609F486C084361B
:1007A0000CF449C0843609F453C0833779F720919B
:1007B000E2013091E3012B30310514F02AE030E002
:1007C0008091E101992787FD9095829FA001839FE9
:1007D000500D929F500D11245093E3014093E2017C
:1007E00080915103992787FD90954817590749F043
:1007F0008091EB01882329F44093510381E0809399
:1008000009021092E4018BB38F708BBB08954336BD
:1008100031F0443609F475C0423609F082CF409376
:10082000E001109282011092E3011092E20181E056
:100830008093E4010895823609F0A8CF8091E20107
:1008400080935E018BB38F708BBB1092E40108958F
:100850002091E2013091E3012135310514F020E5CA
:1008600030E08091E101992787FD9095829FA0015A
:10087000839F500D929F500D11245093E30140939C
:10088000E20180915003992787FD909548175907F9
:1008900009F4B7CF8091EB01882309F0B2CF4093E0
:1008A000500381E080930902ACCF8091E2018093F4
:1008B0005D018BB38F708BBB1092E40108958FEFB5
:1008C0008093E10158CF10922002089581E0809337
:1008D000FE0180E28093E00108954093E0011092D0
:1008E00082011092E3011092E20191E09093E40101
:1008F0009093E1018BB38F7080618BBB9093DF018C
:1009000008954093E001109282011092E301109249
:10091000E20181E08093E4018093E101089581E0A8
:100920008093200208951F920F920FB60F920BB67C
:100930000F9211242F933F934F935F936F937F9365
:100940008F939F93AF93BF93EF93FF9380919B00FF
:1009500087FFFCCF80919C000E947A03FF91EF916A
:10096000BF91AF919F918F917F916F915F914F91C7
:100970003F912F910F900BBE0F900FBE0F901F90C5
:100980001895949888EE93E00E94FB04949A089539
:100990008091720190917301892BD1F310927301B0
:1009A00010927201E1EBF2E001900020E9F731973B
:1009B000E15BF2404E2FEE3708F04DE750E0CA0100
:1009C0008C5C9D4F90936F0180936E0184E392E065
:1009D00061EB72E00E94600E80919B0085FFFCCF6E
:1009E0008091340280939C0085E392E090937101A2
:1009F000809370010895009739F026E63EE0F901F2
:100A00003197F1F70197D9F70895982F80538A30DD
:100A100038F09062892F8156863018F4892F8755D7
:100A200008958FEF0895E199FECF1FBA1EBAE09A9C
:100A30008DB38F3F29F080938301809183010895C6
:100A4000E199FECF1FBA1EBA81E38DBB0FB6F894B1
:100A5000E29AE19A0FBE8093830180918301089509
:100A6000E199FECF1FBA1EBA8DBB0FB6F894E29A79
:100A7000E19A0FBE8093830108951F920F920FB6E3
:100A80000F9211242F933F934F935F938F939F93D4
:100A900090B191708091E801981751F09093E8011E
:100AA000992389F08CB59DB590938501809384013D
:100AB0009F918F915F914F913F912F910F900FBE1A
:100AC0000F901F9018954CB55DB520918401309121
:100AD00085014217530754F0CA01821B930B21E092
:100AE0008C3292076CF41092EB01DCCF86B597B58F
:100AF000840F951F821B930B21E08C3292079CF38D
:100B00008A5892407CF681E08093EB01CBCF1F9214
:100B10000F920FB60F920BB60F9211242F933F93A3
:100B20004F935F936F937F938F939F93AF93BF93F5
:100B3000EF93FF9312BE8091E7018F5F8093E701EF
:100B40008639B1F1883961F106991FC0809121027F
:100B5000882331F481E0809321028BB3806F8BBBBB
:100B60000E94180BFF91EF91BF91AF919F918F91D0
:100B70007F916F915F914F913F912F910F900BBE9D
:100B80000F900FBE0F901F9018958091210288231F
:100B900039F3109221028BB38F7080688BBBE0CF4A
:100BA0001092E70180916500826080936500CCCF50
:100BB000809165008D7F80936500C6CFEF92FF9294
:100BC0000F931F93DF93CF9300D0CDB7DEB7F82EEE
:100BD000E62E198280EA8A838F2D62E08E010F5FF4
:100BE0001F4FA8010E944E078AEA8A838F2D62E078
:100BF000A8010E944E0785EA8A838F2D62E0A80132
:100C00000E944E07EA828F2D62E0A8010E944E07E3
:100C10000F900F90CF91DF911F910F91FF90EF9068
:100C20000895DF93CF9300D0CDB7DEB792E09983DC
:100C30006A8362E0AE014F5F5F4F0E944E070F90E4
:100C40000F90CF91DF910895DF93CF9300D0CDB770
:100C5000DEB791E099836A8362E0AE014F5F5F4F38
:100C60000E944E070F900F90CF91DF910895FF9251
:100C70000F931F93DF93CF930F92CDB7DEB7F82E6C
:100C8000198261E08E010F5F1F4FA8010E944E077D
:100C90008F2D61E0A8010E94BC0789818F3F39F048
:100CA0000F90CF91DF911F910F91FF90089580E0F9
:100CB0000F90CF91DF911F910F91FF900895CF92E8
:100CC000DF92EF92FF920F931F93DF93CF9300D0A9
:100CD00000D0CDB7DEB7182F8FEF90E090932F03A1
:100CE00080932E031B8281E58C8393E0E92EF12C07
:100CF000EC0EFD1E812F62E0A7010E944E0786E6E2
:100D00009EE00197F1F700E086E6C82E8EE0D82E2F
:100D10001B82812F61E0A7010E944E07812F61E0B5
:100D2000A7010E94BC07C6010197F1F70F5F0E31C2
:100D300051F18B81882361F30E3128F583E08B8399
:100D4000812F61E0A7010E944E07812F61E0AE0173
:100D50004F5F5F4F0E94BC0782E08B83812F61E071
:100D6000A7010E944E07812F61E0AE014E5F5F4FE9
:100D70000E94BC079A8180E02981820F911D909387
:100D80002F0380932E030F900F900F900F90CF9111
:100D9000DF911F910F91FF90EF90DF90CF9008951A
:100DA000BC01809171008E7F8093710080917100F1
:100DB0008D7F8093710089E999E30E942F11603142
:100DC00030F0862F90E0409795958795682F609337
:100DD00070000895909A919A84E690E00E94D0065F
:100DE000E4E7F0E08081846080831092EA01109251
:100DF000E90180818E7F8083808180648083789404
:100E00000895E4E7F0E080818F70806A8083089520
:100E1000E4E7F0E080818F70806D80830895809397
:100E20007300E4E7F0E080818F708068808308952C
:100E3000882339F4809174008F70806880937400E7
:100E40000895809174008F70806C80937400089571
:100E50008091730008958091710008952091E901B7
:100E60003091EA01C901089520E03DE703C0215017
:100E7000304049F08091740087FFF9CF12161306B5
:100E800014F481E0089588E08093620088EC90E09B
:100E90000E94FB041092620080E00895982FFA01EE
:100EA000809174008F70806A8093740020E03DE729
:100EB00003C021503040C1F18091740087FFF9CF09
:100EC000121613068CF59E7F909373008091740028
:100ED0008F7080688093740020E03DE703C021504C
:100EE000304011F18091740087FFF9CF121613067C
:100EF000DCF480917100883139F191E080917400C7
:100F00008F70806D8093740020E137E206C021501D
:100F100030408FEF2F3F380739F08091740084FF05
:100F2000F6CF1216130654F088E08093620088EC26
:100F300090E00E94FB041092620091E0892F0895D6
:100F4000121613068CF761506623A1F081918093ED
:100F50007300809174008F7080688093740020E02B
:100F60003DE703C021503040F9F28091740087FDC5
:100F7000E7CFF8CF90E0C2CFCF93DF93982FEA016D
:100F8000809174008F70806A8093740020E03DE748
:100F900004C02150304009F447C08091740087FF9D
:100FA000F8CF121613060CF03FC0916090937300B7
:100FB000809174008F7080688093740020E03DE71A
:100FC00003C02150304081F18091740087FFF9CF38
:100FD000121613064CF580917100803491F091E067
:100FE000809174008F70806D80937400892FDF91E1
:100FF000CF91089512161306BCF480917300899363
:1010000061506230F8F0809174008F70806C809332
:10101000740020E03DE703C02150304029F080916A
:10102000740087FDE7CFF8CF88E08093620088ECFA
:1010300090E00E94FB041092620091E0892FDF9102
:10104000CF910895809174008F70806880937400B0
:101050000E943407882329F080917300888390E0F0
:10106000BFCF91E0EBCF1F920F920FB60F921124DA
:101070002F933F934F935F936F937F938F939F93A0
:10108000AF93BF934CB55DB52091EC013091ED016C
:1010900042175307C4F566B577B5640F751F621B19
:1010A000730B5093ED014093EC018091EB01882389
:1010B000D9F00C9919C09B012156314027393105CF
:1010C00034F58FEF2A36380724F520E030E08091A0
:1010D0005103992787FD90952817390729F0209308
:1010E000510381E080930902BF91AF919F918F914D
:1010F0007F916F915F914F913F912F910F900FBE14
:101100000F901F901895BA01621B730BCACF20E095
:1011100030E088279927821B930B66E070E00E94DD
:1011200043119B01D4CF1F920F920FB60F9211243F
:101130002F933F934F935F936F937F938F939F93DF
:10114000AF93BF932CB53DB58091EE019091EF0127
:1011500028173907C4F546B557B5420F531F481B2A
:10116000590B3093EF012093EE018091EB0188231E
:10117000D9F00D9919C0CA018E5591408D3891054D
:1011800034F52FEF8437920724F520E030E080918A
:101190005003992787FD90958217930729F0209394
:1011A000500381E080930902BF91AF919F918F918D
:1011B0007F916F915F914F913F912F910F900FBE53
:1011C0000F901F901895A901481B590BCACF80E0BA
:1011D00090E022273327281B390BA90137FD0FC0C8
:1011E0004E5C5F4F429FC001439F900D529F900DF8
:1011F000112464EB70E00E9443119B01C8CF442787
:101200005527421B530BECCFE0EFF1E089E591E06D
:101210008193919321E0EE3FF207D1F7089592E197
:101220006130790710F060507241E82FF0E0EE0F66
:10123000FF1FE051FE4F71836083833089F184305A
:1012400048F0853029F1853060F470938700609311
:1012500086000895813009F1823030F079BD68BD93
:101260000895863081F0089579BD68BD7093790046
:10127000609378007093F5016093F4017093F70127
:101280006093F6010895709383006093820008953F
:10129000709385006093840008957BBD6ABD0895B6
:1012A000709379006093780008952F923F924F9247
:1012B0005F926F927F928F929F92AF92BF92CF92E6
:1012C000DF92EF92FF920F931F93DF93CF93CDB7EF
:1012D000DEB762970FB6F894DEBF0FBECDBFF82E13
:1012E0007A8B698B882309F0D5C02091F401309165
:1012F000F5012617370708F4FCC04FEF5FEFA09009
:10130000F601B090F701E988FA88AE14BF0408F43A
:10131000F3C0CC24CA94DC2C890189899A89081BE2
:10132000190B17FDF3C04501A989BA898A1A9B0ACE
:1013300097FCF6C0C401081519050CF4C8011C017E
:10134000442437FC4094542C121413041404150440
:101350000CF082C0C901AA2797FDA095BA2F8983F6
:101360009A83AB83BC83BA01882777FD8095982F39
:101370009801442737FD4095542F75010027F7FC4D
:101380000095102FED86FE860F87188B76010027BB
:10139000F7FC0095102F5401CC24B7FCC094DC2C32
:1013A0000E94101169877A878B879C87C801B701D3
:1013B000A60195010E9410116D837E838F8398870B
:1013C000662477244301AA24BB246501EE24FF246C
:1013D0008701C601B501A20191010E9456118981C0
:1013E0009A81AB81BC81280F391F4A1F5B1F82E0A5
:1013F000B9010E940F09C801B701A20191010E9421
:1014000056118D859E85AF85B889280F391F4A1FD3
:101410005B1F83E0B9010E940F098CE090E00E94FD
:10142000FB040894611C711C811C911C89859A85A0
:10143000AB85BC85A80EB91ECA1EDB1E8D819E81A0
:10144000AF81B885E80EF91E0A1F1B1F62147304D2
:10145000840495040CF4BDCF80E069897A890E94E8
:101460000F0962960FB6F894DEBF0FBECDBFCF91C5
:10147000DF911F910F91FF90EF90DF90CF90BF9081
:10148000AF909F908F907F906F905F904F903F9024
:101490002F90089590E0880F991FFC01E051FE4FB6
:1014A00060817181A989BA896A177B07F8F0E98997
:1014B000FA89E617F707A9F20FEF1FEF20EFC22E08
:1014C00021E0D22EC80ED91E600F711F8F2D0E94F1
:1014D0000F098CE090E00E94FB04D6016D917C9195
:1014E000E989FA896E177F0779F7BBCF01E010E031
:1014F000E5CF41E050E003CF61E0C62ED12C890159
:1015000089899A89081B190B17FF0DCF1095019532
:101510001F4F4501A989BA898A1A9B0A97FE0ACFEB
:10152000909481949108939405CF8091500387FD06
:101530006EC028E230E030930F0220930E028091BB
:101540005003992787FD9095281B390B3093110282
:10155000209310028091510320910E0230910F02CE
:10156000992787FD9095AC01429FC001439F900D44
:10157000529F900D112490930F0280930E02809140
:101580000E0290910F02449690930F0280930E02E8
:1015900080910E0290910F0268E270E00E94431168
:1015A00070930F0260930E028091510320911002FC
:1015B00030911102992787FD9095AC01429FC0019F
:1015C000439F900D529F900D112490931102809390
:1015D0001002809110029091110244969093110292
:1015E00080931002809110029091110268E270E0E5
:1015F0000E9443117093110260931002109209022D
:1016000080911F02882311F080912002089580911B
:101610005003992787FD9095889690930F028093A9
:101620000E0288E290E0909311028093100292CF14
:10163000809122028823C1F18091220281508093FF
:10164000220280912302882309F051C020911002C8
:101650003091110280910C0290910D028217930734
:101660000CF04BC080910102909102028C5C914081
:1016700048F4809101029091020201969093020237
:101680008093010283E080932302609101027091B4
:10169000020283E00E940F096091FF017091000235
:1016A00082E00E940F09089520910E0230910F02EE
:1016B00080910A0290910B0282179307E4F58091C2
:1016C000FF01909100028C5C914048F48091FF01F1
:1016D000909100020196909300028093FF0183E0B5
:1016E0008093220280912302882309F4AFCF809156
:1016F0002302815080932302C8CF209110023091A1
:10170000110280910C0290910D02281739070CF0FC
:10171000BCCF8091010290910202873E910508F4AE
:10172000B1CF809101029091020201979093020241
:1017300080930102A7CF20910E0230910F02809179
:101740000A0290910B02281739070CF07ACF80918A
:10175000FF0190910002873E910508F28091FF0100
:10176000909100020197909300028093FF01B7CF00
:101770001092220210922302109216021092170267
:10178000109218021092190210921A0210921B0263
:1017900010921C0210921D0289E591E090930002C4
:1017A0008093FF0190930202809301020E9404093A
:1017B00082E069E571E00E940F0983E069E571E06C
:1017C0000E940F090E94E80D81E090E00E94FB0456
:1017D0000E94EE0D81E090E00E94FB0408950E94BB
:1017E000EE0D10920F0210920E0210921102109242
:1017F0001002089580911E02811108950E942A0E00
:10180000909581959F4F909313028093120281E0EF
:1018100090E00E94FB040E94450E909581959F4F99
:10182000909315028093140281E090E00E94FB04E3
:101830000E94EF0B81E080931E02209112023091F2
:101840001302442737FD4095542F80911602909142
:101850001702A0911802B0911902820F931FA41FC2
:10186000B51F8093160290931702A0931802B093AD
:1018700019022091140230911502442737FD40953A
:10188000542F80911A0290911B02A0911C02B091DA
:101890001D02820F931FA41FB51F80931A029093FD
:1018A0001B02A0931C02B0931D021092130210920F
:1018B00012021092150210921402A1EBB2E0E6E8B7
:1018C000F1E086E101900D928150E1F781EB92E029
:1018D0000E94C80482E390E00E94FB04089580E027
:1018E00069E571E00E94550910920F0210920E02F4
:1018F000109211021092100208950F931F93CF932C
:10190000DF9300910E0210910F02C0911002D0914E
:1019100011020E946F0CA1EBB2E0ECE9F1E080E172
:1019200001900D928150E1F70E94C80488EB9BE082
:101930000E94FB040E942A0E909581959F4F9093E0
:1019400013028093120281E090E00E94FB040E9447
:10195000450E909581959F4F9093150280931402A8
:10196000A1EBB2E0ECEAF1E082E101900D9281504E
:10197000E1F70E94C8040E94EF0B84E690E00E9409
:10198000FB042091120230911302442737FD409549
:10199000542F8091160290911702A0911802B091D5
:1019A0001902820F931FA41FB51F809316029093F4
:1019B0001702A0931802B0931902209114023091DB
:1019C0001502442737FD4095542F80911A029091BB
:1019D0001B02A0911C02B0911D02820F931FA41F35
:1019E000B51F80931A0290931B02A0931C02B09320
:1019F0001D0210920B0210920A0210920D02109218
:101A00000C020E942A0E909581959F4F909313028D
:101A10008093120281E090E00E94FB040E94450E38
:101A2000909581959F4F909315028093140281E0C9
:101A300090E00E94FB0410930F0200930E02D093DB
:101A40001102C0931002A1EBB2E0EEEBF1E08AE0EC
:101A500001900D928150E1F70E94C804DF91CF916F
:101A60001F910F9108950E942A0E909581959F4F86
:101A7000909313028093120281E090E00E94FB0495
:101A80000E94450E909581959F4F909315028093EB
:101A9000140281E090E00E94FB04809121028823DF
:101AA00009F08BC080911E02882309F04BC0809101
:101AB000FE01882309F04DC080911202909113021B
:101AC00097FD7EC0855C99404CF480911402909102
:101AD000150297FD79C0855C994014F00E947D0C39
:101AE0000E94F40D90930B0280930A0280910A02E7
:101AF00090910B02909581959F4F90930B0280934C
:101B00000A0281E090E00E94FB040E940F0E909375
:101B10000D0280930C0280910C0290910D02909521
:101B200081959F4F90930D0280930C0281E090E08D
:101B30000E94FB0480910902882309F408950E9401
:101B4000950A08950E9428018091FE01882309F4D6
:101B5000B3CF8091120290911302909581959F4F7F
:101B6000AA2797FDA095BA2F80931602909317028B
:101B7000A0931802B093190280911402909115025B
:101B8000909581959F4FAA2797FDA095BA2F809396
:101B90001A0290931B02A0931C02B0931D02109294
:101BA000FE01A1EBB2E0E8ECF1E089E001900D92DA
:101BB0008150E1F70E94C8047FCF0E94FA0B77CFD3
:101BC000909581959F4F7ECF909581959F4F83CF24
:101BD00082E360E070E00E941403089588E260E010
:101BE00070E00E94140308950F931F9382E160E058
:101BF00070E00E94140380E090E00E94200380E0E7
:101C000090E00E942003182F00E080E090E00E9406
:101C10002003080F191FC8011F910F9108950F93FA
:101C20001F9381E160E070E00E94140380E090E087
:101C30000E94200380E090E00E942003182F00E023
:101C400080E090E00E942003080F191FC8011F9137
:101C50000F9108950F931F938AE060E070E00E9457
:101C6000140380E090E00E94200380E090E00E9456
:101C70002003182F00E080E090E00E942003080F6E
:101C8000191FC8011F910F9108950F931F9389E0A9
:101C900060E070E00E94140380E090E00E94200366
:101CA00080E090E00E942003182F00E080E090E0A8
:101CB0000E942003080F191FC8011F910F9108955A
:101CC000FB01DC014150504048F001900D92002092
:101CD000C9F701C01D9241505040E0F70895AEE0B1
:101CE000B0E0E5E7FEE00C94A1110D891E8986E0C5
:101CF0008C831A8309838FEF9FE79E838D839E01D8
:101D0000275E3F4FCE0101966F89788DA9010E9411
:101D1000930E2F813885020F131FF80110822E9623
:101D2000E4E00C94BD11ABE0B0E0E9E9FEE00C9416
:101D300093113C012B015A01FC0117821682838109
:101D400081FD03C06FEF7FEFC6C19AE0892E1E01AF
:101D50000894211C311CF3012381F20123FD85919C
:101D600023FF81912F01882309F4B2C1853239F410
:101D700023FD859123FF81912F01853229F490E085
:101D8000B3010E948610E7CF982FFF24EE249924F8
:101D9000FFE1FF15D0F09B3269F09C3228F49032BD
:101DA00059F0933291F40EC09D3249F0903369F4AA
:101DB00041E024C052E0F52A84E0F82A28C098E0E7
:101DC000F92A25C0E0E1FE2A22C0F7FC29C0892FAC
:101DD00080538A3070F4F6FE05C0989C902C112434
:101DE000980E15C0E89CE02C1124E80EF0E2FF2AC2
:101DF0000EC09E3229F4F6FC6BC140E4F42A07C001
:101E00009C3619F450E8F52A02C0983649F4F201DC
:101E100023FD959123FF91912F01992309F0B8CFCC
:101E2000892F8554833018F08052833038F444E091
:101E300050E0A40EB51E5FE359830FC0933631F016
:101E4000933779F0933509F056C020C0F5018081B1
:101E5000898342E050E0A40EB51E610101E010E06C
:101E600012C0F501C080D180F6FC03C06FEF7FEF98
:101E700002C0692D70E042E050E0A40EB51EC6011C
:101E80000E947B108C015FE7F52214C0F501C08031
:101E9000D180F6FC03C06FEF7FEF02C0692D70E0C8
:101EA00042E050E0A40EB51EC6010E9470108C01E5
:101EB00050E8F52AF3FE07C01AC080E290E0B301B3
:101EC0000E948610EA948E2D90E008171907A8F357
:101ED0000EC0F601F7FC8591F7FE81916F0190E04D
:101EE000B3010E948610E110EA94015010400115E0
:101EF000110579F7EAC0943611F0993669F5F7FEC5
:101F000008C0F501208131814281538184E090E055
:101F10000AC0F501808191819C01442737FD4095DD
:101F2000542F82E090E0A80EB91E9FE6F92257FFD9
:101F300009C050954095309521953F4F4F4F5F4FC9
:101F4000E0E8FE2ACA01B901A1012AE030E00E94BE
:101F5000B210D82ED21840C0953729F41F2D1F7EFD
:101F60002AE030E01DC01F2D197F9F3661F09037A9
:101F700020F4983509F0ACC00FC0903739F098378D
:101F800009F0A6C004C028E030E00AC0106114FDCA
:101F9000146020E130E004C014FD166020E132E05E
:101FA00017FF08C0F501608171818281938144E04F
:101FB00050E008C0F50180819181BC0180E090E093
:101FC00042E050E0A40EB51EA1010E94B210D82E2E
:101FD000D2188FE7F82EF122F6FE0BC05EEFF52245
:101FE000D91438F4F4FE07C0F2FC05C08FEEF822D5
:101FF00002C01D2D01C0192DF4FE0DC0FE01ED0D16
:10200000F11D8081803319F499EEF92208C01F5F19
:10201000F2FE05C003C08F2D867809F01F5F0F2DDB
:10202000F3FC14C0F0FE0FC01E1510F09D2C0BC069
:102030009D2C9E0C911A1E2D06C080E290E0B301EB
:102040000E9486101F5F1E15C0F304C01E1510F4F9
:10205000E11A01C0EE2404FF0FC080E390E0B30159
:102060000E94861002FF1DC001FD03C088E790E0BA
:102070000EC088E590E00BC0802F867891F001FFBC
:1020800002C08BE201C080E2F7FC8DE290E0B30178
:102090000E94861006C080E390E0B3010E94861083
:1020A0009A94D914C0F3DA94F101ED0DF11D8081F9
:1020B00090E0B3010E948610DD20A9F706C080E2FF
:1020C00090E0B3010E948610EA94EE20C1F743CE5F
:1020D000F30166817781CB012B96E2E10C94AF117D
:1020E000FC010590615070400110D8F780959095E3
:1020F0008E0F9F1F0895FC016150704001900110E8
:10210000D8F7809590958E0F9F1F08950F931F937A
:10211000CF93DF938C01EB018B8181FF1BC082FF8A
:102120000DC02E813F818C819D812817390764F471
:10213000E881F9810193F983E88306C0E885F98590
:10214000802F0995892B31F48E819F8101969F8381
:102150008E8302C00FEF1FEFC801DF91CF911F9157
:102160000F910895FA01AA27283051F1203181F109
:10217000E8946F936E7F6E5F7F4F8F4F9F4FAF4F8F
:10218000B1E03ED0B4E03CD0670F781F891F9A1FA2
:10219000A11D680F791F8A1F911DA11D6A0F711D56
:1021A000811D911DA11D20D009F468943F912AE062
:1021B000269F11243019305D3193DEF6CF0108954A
:1021C000462F4770405D4193B3E00FD0C9F7F6CF7B
:1021D000462F4F70405D4A3318F0495D31FD405243
:1021E000419302D0A9F7EACFB4E0A69597958795D9
:1021F00077956795BA95C9F70097610571050895B8
:102200009B01AC010A2E0694579547953795279563
:10221000BA95C9F7620F731F841F951FA01D0895FB
:10222000629FD001739FF001829FE00DF11D649FBA
:10223000E00DF11D929FF00D839FF00D749FF00D46
:10224000659FF00D9927729FB00DE11DF91F639FE7
:10225000B00DE11DF91FBD01CF0111240895AA1B86
:10226000BB1B51E107C0AA1FBB1FA617B70710F081
:10227000A61BB70B881F991F5A95A9F780959095B3
:10228000BC01CD01089597FB092E07260AD077FDE2
:1022900004D0E5DF06D000201AF4709561957F4FD9
:1022A0000895F6F7909581959F4F089597FB092E15
:1022B00005260ED057FD04D014D00AD0001C38F4E7
:1022C00050954095309521953F4F4F4F5F4F089562
:1022D000F6F790958095709561957F4F8F4F9F4F42
:1022E0000895A1E21A2EAA1BBB1BFD010DC0AA1F57
:1022F000BB1FEE1FFF1FA217B307E407F50720F06F
:10230000A21BB30BE40BF50B661F771F881F991FE9
:102310001A9469F760957095809590959B01AC0132
:10232000BD01CF0108952F923F924F925F926F921D
:102330007F928F929F92AF92BF92CF92DF92EF9255
:10234000FF920F931F93CF93DF93CDB7DEB7CA1BD6
:10235000DB0B0FB6F894DEBF0FBECDBF09942A8801
:10236000398848885F846E847D848C849B84AA84A9
:10237000B984C884DF80EE80FD800C811B81AA8136
:10238000B981CE0FD11D0FB6F894DEBF0FBECDBF01
:08239000ED010895F894FFCF60
:1023980040256C6420256C64202564202564202554
:1023A8006420256420257520257520257520257530
:1023B8002025750A0D0021724F4E0A0D0021724F1B
:1023C80046460A0D00217265645F73776974636815
:1023D8005F72656C65617365640A0D002120736D19
:1023E800656C79207A616A6B6F0A0D00192D5002AD
:1023F8000000000300000000140320030000340262
:1024080034020100000000030000000060035803CC
:102418000000013118FC21726564207377697463C8
:102428006820707265737365640A0D00216E6565B6
:1024380064206120627265616B0A0D002172657308
:10244800657420706F7320746F20300A0D0021723C
:102458006573756D650A0D002172657365740A0DE3
:02246800000072
:00000001FF
