:100000000C9446000C9465000C9465000C946500FB
:100010000C9465000C94C9070C9429080C94650095
:100020000C9465000C9465000C9465000C946500BC
:100030000C9465000C9465000C9465000C941D05EF
:100040000C9465000C9465000C9465000C9465009C
:100050000C9465000C944F020C9465000C946500A0
:100060000C9465000C9465000C9465000C9465007C
:100070000C9465000C94D3040C9429040C94650032
:100080000C94BB020C9465000C94650011241FBEF7
:10009000CFEFD0E1DEBFCDBF11E0A0E0B1E0E4ECF6
:1000A000F2E200E00BBF02C007900D92A63DB1073F
:1000B000D9F713E0A6EDB1E001C01D92A135B1075B
:1000C000E1F70E9444020C9460110C940000CF925E
:1000D000DF92EF92FF920F931F9320910F023091C6
:1000E00010024091110250911202E0901302F09020
:1000F0001402009115021091160260910302709192
:100100000402C0900502D09006028DB79EB74E97AC
:100110000FB6F8949EBF0FBE8DBFEDB7FEB73196F8
:100120008AEA92E0ADB7BEB712969C938E93119770
:1001300080E091E09383828380910B0290910C0286
:10014000AA2797FDA095BA2F820F931FA41FB51F52
:1001500084839583A683B78380910D0290910E02CC
:10016000AA2797FDA095BA2F8E0D9F1DA01FB11F26
:1001700080879187A287B38775876487D786C6866D
:1001800080911702808B118A80911802828B138ACA
:1001900080915E01848B158A80915F01868B178A1E
:1001A00080916001808F118E80916101828F138E0A
:1001B00080916201848F158E0E94050E8DB79EB7C7
:1001C0004E960FB6F8949EBF0FBE8DBF0E945E0480
:1001D0001F910F91FF90EF90DF90CF900895909135
:1001E000E401809163019817B1F08091E4018823C4
:1001F00099F0AAEAB2E0E6E2F1E087E001900D9220
:100200008150E1F70E945E0481E0809302028091B8
:10021000E401809363010895AAEAB2E0EDE2F1E01F
:1002200088E001900D928150E1F70E945E041092E7
:100230004A03109249030E94050CE9CFAAEAB2E0F2
:10024000E5E3F1E087E101900D928150E1F70E9432
:100250005E048AE090E00E949104109217020895D3
:1002600088EE0E94F5058EE090E00E94910498ECE3
:1002700090935E019093600190936101909362016D
:100280008091270380935F01893110F490935F017F
:1002900080915C0120915D0180915F0190E03327A6
:1002A00027FD30958217930724F080911802882348
:1002B00029F481E090E00E949104089510921802C0
:1002C0000E942B0AF6CF28E10FB6F89421BD11BC8D
:1002D0000FBE32E03093640081E08093650080ECD3
:1002E00084BB80E285BB90EF9ABB8FE08BBB86EF2F
:1002F00087BB28BB92BB21BB84E082B913B888E0DE
:100300008093610080E48093620085E08ABF80E38F
:1003100089BF3FBD2EBD30938B0020938A008EB5E0
:1003200082608EBD8EB581608EBD80918A008160B5
:1003300080938A008FB588628FBD80E092E197BD7F
:1003400086BD80EA9FE09093810080938000809139
:100350007D00846080937D0089E591E09BBD8ABD2E
:1003600099BD88BD90937900809378009093870021
:1003700080938600909385008093840090938300FF
:100380008093820027E023BF8FE881BF37BF1BB86F
:1003900080E18AB996E0909395008FE289B988ED63
:1003A00080939A0090939D0020939900789484EF15
:1003B00091E00E9491040E944E0B0E94800684E608
:1003C00090E00E94910488EE64E60E94A70588EE02
:1003D00069E00E94BA058BB38F7080618BBB82E3AA
:1003E00090E00E9491048BB38F7080638BBB8CE391
:1003F00090E00E9491048BB38F7080628BBB86E487
:1004000090E00E9491048BB38F7080668BBB80E577
:1004100090E00E9491048BB38F7080648BBB8AE55F
:1004200090E00E9491048BB38F70806C8BBB84E64C
:1004300090E00E9491048BB38F7080688BBB8EE636
:1004400090E00E9491048BB38F708BBB0E94A90433
:1004500088E791E090934E0380934D0390934C0373
:1004600080934B0310921A02AAEAB2E0ECE4F1E0A6
:1004700080E101900D928150E1F70E945E0480E2DC
:1004800093E00E94910408950E9463010E94EF008E
:100490000E9430010E94C90C0E946700F7CF1F9292
:1004A0000F920FB60F920BB60F9211242F933F931A
:1004B0008F939F93EF93FF932091D701E22FF0E06A
:1004C00084B195B1EE0FFF1FE35EFD4F91838083F2
:1004D000273051F1822F8F5F8093D701883001F14F
:1004E0008730A9F0E82F3E983E9A87B1807E8E2B08
:1004F00087B9369AFF91EF919F918F913F912F91FC
:100500000F900BBE0F900FBE0F901F9018953E9846
:1005100087B1806C87B9E7E0E8CF8BB3806F8BBB86
:100520001092D701E0E0DFCF80912B0290912C0256
:100530008751924078F68091D6018F5F8093D601E3
:10054000843659F3883C61F78BB38F708BBB109264
:10055000D601E6CF5498539A5D9BFECF8CB95E9B33
:10056000FECF5398549A80E090E008955F9BFECFB1
:100570008CB190E008951F920F920FB60F920BB6B8
:100580000F9211248F939F93EF93FF93E091740147
:10059000F09175018091720190917301E817F9074C
:1005A00088F081E090E09093770180937601FF914D
:1005B000EF919F918F910F900BBE0F900FBE0F90F8
:1005C0001F90189580919B0085FFFCCF81918093AF
:1005D0009C00F0937501E0937401E9CF80919B003A
:1005E00087FFFCCF80919C0090E00895982F809128
:1005F0009B0085FFFCCF90939C0080E090E00895E5
:1006000080919B0085FFFCCFE0917401F091750112
:10061000819180939C00F0937501E093740108959B
:10062000482F8B3309F449C080918601882399F0C3
:10063000493609F40AC14A360CF47FC0423709F43E
:10064000DBC0433709F4DFC04F3609F4D2C080E283
:100650008093D90108958091DD01882369F14D329D
:1006600009F4C3C0842F80538A30D8F48091DB0111
:100670009091DC019C01220F331F220F331F220FA8
:10068000331F880F991F280F391F20533040842FA4
:10069000992787FD9095280F391F3093DC0120930F
:1006A000DB019BB38091D8018F5F8093D801829545
:1006B000807F9F70892B8BBB089581E0809386019A
:1006C0008091D901833609F486C084360CF449C080
:1006D000843609F453C0833779F72091DB013091D8
:1006E000DC012B30310514F02AE030E08091DA0192
:1006F000992787FD9095829FA001839F500D929F1F
:10070000500D11245093DC014093DB0180914A038A
:10071000992787FD90954817590749F08091E40182
:10072000882329F440934A0381E0809302021092C7
:10073000DD018BB38F708BBB0895433631F04436A7
:1007400009F475C0423609F082CF4093D901109266
:1007500086011092DC011092DB0181E08093DD01C3
:100760000895823609F0A8CF8091DB0180935D0166
:100770008BB38F708BBB1092DD0108952091DB014C
:100780003091DC012135310514F020E530E0809115
:10079000DA01992787FD9095829FA001839F500DD4
:1007A000929F500D11245093DC014093DB01809106
:1007B0004903992787FD90954817590709F4B7CF42
:1007C0008091E401882309F0B2CF4093490381E08E
:1007D00080930202ACCF8091DB0180935C018BB3EC
:1007E0008F708BBB1092DD0108958FEF8093DA013B
:1007F00058CF10921902089581E08093F70180E2AA
:100800008093D90108954093D901109286011092E6
:10081000DC011092DB0191E09093DD019093DA010D
:100820008BB38F7080618BBB9093D80108954093F8
:10083000D901109286011092DC011092DB0181E057
:100840008093DD018093DA01089581E0809319029D
:1008500008951F920F920FB60F920BB60F921124AC
:100860002F933F934F935F936F937F938F939F93B8
:10087000AF93BF93EF93FF9380919B0087FFFCCFD3
:1008800080919C000E941003FF91EF91BF91AF9166
:100890009F918F917F916F915F914F913F912F9198
:1008A0000F900BBE0F900FBE0F901F90189594984D
:1008B00088EE93E00E949104949A089580917601C5
:1008C00090917701892BD1F31092770110927601E4
:1008D000EAEAF2E001900020E9F73197EA5AF240A3
:1008E0004E2FEE3708F04DE750E0CA01835D9D4F73
:1008F00090937301809372018DE292E06AEA72E054
:100900000E94F60D80919B0085FFFCCF80912D0207
:1009100080939C008EE292E0909375018093740125
:100920000895009739F026E63EE0F9013197F1F796
:100930000197D9F70895982F80538A3038F0906244
:10094000892F8156863018F4892F875508958FEFA7
:100950000895E199FECF1FBA1EBAE09A8DB38F3F7A
:1009600029F080938701809187010895E199FECF56
:100970001FBA1EBA81E38DBB0FB6F894E29AE19AD2
:100980000FBE80938701809187010895E199FECF82
:100990001FBA1EBA8DBB0FB6F894E29AE19A0FBE49
:1009A0008093870108951F920F920FB60F92112422
:1009B0002F933F934F935F938F939F9390B1917039
:1009C0008091E101981751F09093E101992389F00A
:1009D0008CB59DB590938901809388019F918F91EB
:1009E0005F914F913F912F910F900FBE0F901F90ED
:1009F00018954CB55DB52091880130918901421759
:100A0000530754F0CA01821B930B21E08C329207EA
:100A10006CF41092E401DCCF86B597B5840F951F76
:100A2000821B930B21E08C3292079CF38A589240F0
:100A30007CF681E08093E401CBCF1F920F920FB63A
:100A40000F920BB60F9211242F933F934F935F9306
:100A50006F937F938F939F93AF93BF93EF93FF9386
:100A600012BE8091E0018F5F8093E0018639B1F181
:100A7000883961F106991FC080911A02882331F4E8
:100A800081E080931A028BB3806F8BBB0E94AE0A09
:100A9000FF91EF91BF91AF919F918F917F916F9156
:100AA0005F914F913F912F910F900BBE0F900FBE12
:100AB0000F901F90189580911A02882339F3109295
:100AC0001A028BB38F7080688BBBE0CF1092E0016D
:100AD00080916500826080936500CCCF8091650035
:100AE0008D7F80936500C6CFEF92FF920F931F9387
:100AF000DF93CF9300D0CDB7DEB7F82EE62E198264
:100B000080EA8A838F2D62E08E010F5F1F4FA8015C
:100B10000E94E4068AEA8A838F2D62E0A8010E947F
:100B2000E40685EA8A838F2D62E0A8010E94E4062C
:100B3000EA828F2D62E0A8010E94E4060F900F90D8
:100B4000CF91DF911F910F91FF90EF900895DF9368
:100B5000CF9300D0CDB7DEB792E099836A8362E08D
:100B6000AE014F5F5F4F0E94E4060F900F90CF9150
:100B7000DF910895DF93CF9300D0CDB7DEB791E03A
:100B800099836A8362E0AE014F5F5F4F0E94E40683
:100B90000F900F90CF91DF910895FF920F931F93C5
:100BA000DF93CF930F92CDB7DEB7F82E198261E0B5
:100BB0008E010F5F1F4FA8010E94E4068F2D61E098
:100BC000A8010E94520789818F3F39F00F90CF9181
:100BD000DF911F910F91FF90089580E00F90CF91CA
:100BE000DF911F910F91FF900895CF92DF92EF92C6
:100BF000FF920F931F93DF93CF9300D000D0CDB718
:100C0000DEB7182F8FEF90E090932803809327038F
:100C10001B8281E58C8393E0E92EF12CEC0EFD1E06
:100C2000812F62E0A7010E94E40686E69EE001971C
:100C3000F1F700E086E6C82E8EE0D82E1B82812FC9
:100C400061E0A7010E94E406812F61E0A7010E94F4
:100C50005207C6010197F1F70F5F0E3151F18B81F9
:100C6000882361F30E3128F583E08B83812F61E0C7
:100C7000A7010E94E406812F61E0AE014F5F5F4F44
:100C80000E94520782E08B83812F61E0A7010E94BE
:100C9000E406812F61E0AE014E5F5F4F0E94520774
:100CA0009A8180E02981820F911D9093280380937F
:100CB00027030F900F900F900F90CF91DF911F910E
:100CC0000F91FF90EF90DF90CF900895BC0180913D
:100CD00071008E7F80937100809171008D7F809371
:100CE000710089E999E30E94C510603130F0862FC8
:100CF00090E0409795958795682F609370000895D0
:100D0000909A919A84E690E00E946606E4E7F0E00B
:100D10008081846080831092E3011092E2018081DF
:100D20008E7F808380818064808378940895E4E757
:100D3000F0E080818F70806A80830895E4E7F0E0BE
:100D400080818F70806D8083089580937300E4E7C5
:100D5000F0E080818F70806880830895882339F463
:100D6000809174008F7080688093740008958091E2
:100D700074008F70806C809374000895809173006C
:100D800008958091710008952091E2013091E3016E
:100D9000C901089520E03DE703C02150304049F0EB
:100DA0008091740087FFF9CF1216130614F481E0C6
:100DB000089588E08093620088EC90E00E9491049E
:100DC0001092620080E00895982FFA0180917400DB
:100DD0008F70806A8093740020E03DE703C021504B
:100DE0003040C1F18091740087FFF9CF12161306CD
:100DF0008CF59E7F90937300809174008F70806853
:100E00008093740020E03DE703C02150304011F191
:100E10008091740087FFF9CF12161306DCF48091DD
:100E20007100883139F191E0809174008F70806D8C
:100E30008093740020E137E206C0215030408FEFEC
:100E40002F3F380739F08091740084FFF6CF1216D7
:100E5000130654F088E08093620088EC90E00E94D2
:100E600091041092620091E0892F089512161306E2
:100E70008CF761506623A1F081918093730080917B
:100E800074008F7080688093740020E03DE703C099
:100E900021503040F9F28091740087FDE7CFF8CF00
:100EA00090E0C2CFCF93DF93982FEA018091740036
:100EB0008F70806A8093740020E03DE704C0215069
:100EC000304009F447C08091740087FFF8CF1216B4
:100ED00013060CF03FC091609093730080917400F2
:100EE0008F7080688093740020E03DE703C021503C
:100EF000304081F18091740087FFF9CF12161306FC
:100F00004CF580917100803491F091E080917400F3
:100F10008F70806D80937400892FDF91CF91089539
:100F200012161306BCF480917300899361506230ED
:100F3000F8F0809174008F70806C8093740020E0D2
:100F40003DE703C02150304029F08091740087FDB7
:100F5000E7CFF8CF88E08093620088EC90E00E94B1
:100F600091041092620091E0892FDF91CF91089552
:100F7000809174008F708068809374000E94CA060C
:100F8000882329F080917300888390E0BFCF91E09F
:100F9000EBCF1F920F920FB60F9211242F933F9316
:100FA0004F935F936F937F938F939F93AF93BF9371
:100FB0004CB55DB52091E5013091E601421753072C
:100FC000C4F566B577B5640F751F621B730B50933C
:100FD000E6014093E5018091E4018823D9F00C9962
:100FE00019C09B01215631402739310534F58FEF67
:100FF0002A36380724F520E030E080914A0399270B
:1010000087FD90952817390729F020934A0381E03E
:1010100080930202BF91AF919F918F917F916F91C9
:101020005F914F913F912F910F900FBE0F901F90A6
:101030001895BA01621B730BCACF20E030E08827F5
:101040009927821B930B66E070E00E94D9109B01E8
:10105000D4CF1F920F920FB60F9211242F933F936C
:101060004F935F936F937F938F939F93AF93BF93B0
:101070002CB53DB58091E7019091E801281739071B
:10108000C4F546B557B5420F531F481B590B309353
:10109000E8012093E7018091E4018823D9F00D99BC
:1010A00019C0CA018E5591408D38910534F52FEF46
:1010B0008437920724F520E030E080914903992796
:1010C00087FD90958217930729F02093490381E0CB
:1010D00080930202BF91AF919F918F917F916F9109
:1010E0005F914F913F912F910F900FBE0F901F90E6
:1010F0001895A901481B590BCACF80E090E0222720
:101100003327281B390BA90137FD0FC04E5C5F4FF9
:10111000429FC001439F900D529F900D112464EB9C
:1011200070E00E94D9109B01C8CF44275527421B6D
:10113000530BECCFE9EEF1E089E591E081939193D7
:1011400021E0E73FF207D1F7089592E16130790796
:1011500010F060507241E82FF0E0EE0FFF1FE751F2
:10116000FE4F71836083833089F1843048F085308D
:1011700029F1853060F470938700609386000895AC
:10118000813009F1823030F079BD68BD0895863034
:1011900081F0089579BD68BD7093790060937800FF
:1011A0007093EE016093ED017093F0016093EF0195
:1011B0000895709383006093820008957093850072
:1011C0006093840008957BBD6ABD08957093790093
:1011D0006093780008952F923F924F925F926F92A2
:1011E0007F928F929F92AF92BF92CF92DF92EF92B7
:1011F000FF920F931F93DF93CF93CDB7DEB7629724
:101200000FB6F894DEBF0FBECDBFF82E7A8B698B78
:10121000882309F0D5C02091ED013091EE01261709
:10122000370708F4FCC04FEF5FEFA090EF01B090DC
:10123000F001E988FA88AE14BF0408F4F3C0CC24A6
:10124000CA94DC2C890189899A89081B190B17FD1E
:10125000F3C04501A989BA898A1A9B0A97FCF6C08E
:10126000C401081519050CF4C8011C01442437FCFD
:101270004094542C12141304140415040CF082C06E
:10128000C901AA2797FDA095BA2F89839A83AB83BA
:10129000BC83BA01882777FD8095982F9801442751
:1012A00037FD4095542F75010027F7FC0095102F4E
:1012B000ED86FE860F87188B76010027F7FC0095D8
:1012C000102F5401CC24B7FCC094DC2C0E94A61033
:1012D00069877A878B879C87C801B701A60195012A
:1012E0000E94A6106D837E838F839887662477245F
:1012F0004301AA24BB246501EE24FF248701C60113
:10130000B501A20191010E94EC1089819A81AB8103
:10131000BC81280F391F4A1F5B1F82E0B9010E9460
:10132000A508C801B701A20191010E94EC108D85AA
:101330009E85AF85B889280F391F4A1F5B1F83E040
:10134000B9010E94A5088CE090E00E9491040894E5
:10135000611C711C811C911C89859A85AB85BC859B
:10136000A80EB91ECA1EDB1E8D819E81AF81B88575
:10137000E80EF91E0A1F1B1F6214730484049504EF
:101380000CF4BDCF80E069897A890E94A508629635
:101390000FB6F894DEBF0FBECDBFCF91DF911F9186
:1013A0000F91FF90EF90DF90CF90BF90AF909F9004
:1013B0008F907F906F905F904F903F902F90089507
:1013C00090E0880F991FFC01E751FE4F6081718109
:1013D000A989BA896A177B07F8F0E989FA89E617BB
:1013E000F707A9F20FEF1FEF29EEC22E21E0D22E50
:1013F000C80ED91E600F711F8F2D0E94A5088CE0AA
:1014000090E00E949104D6016D917C91E989FA895E
:101410006E177F0779F7BBCF01E010E0E5CF41E021
:1014200050E003CF61E0C62ED12C890189899A89C9
:10143000081B190B17FF0DCF109501951F4F450184
:10144000A989BA898A1A9B0A97FE0ACF9094819437
:101450009108939405CF8091490387FD6EC028E2DF
:1014600030E03093080220930702809149039927C6
:1014700087FD9095281B390B30930A0220930902AF
:1014800080914A032091070230910802992787FD35
:101490009095AC01429FC001439F900D529F900DCB
:1014A0001124909308028093070280910702909183
:1014B00008024496909308028093070280910702E5
:1014C0009091080268E270E00E94D91070930802BF
:1014D0006093070280914A032091090230910A0229
:1014E000992787FD9095AC01429FC001439F900DC5
:1014F000529F900D112490930A02809309028091CB
:10150000090290910A02449690930A02809309027C
:101510008091090290910A0268E270E00E94D9105D
:1015200070930A02609309021092020280911802DD
:10153000882311F080911902089580914903992719
:1015400087FD90958896909308028093070288E221
:1015500090E090930A028093090292CF80911B023F
:101560008823C1F180911B02815080931B028091DE
:101570001C02882309F051C02091090230910A020F
:101580008091050290910602821793070CF04BC0E0
:101590008091FA019091FB018C5C914048F480911C
:1015A000FA019091FB0101969093FB018093FA015F
:1015B00081E080931C026091FA017091FB0183E04D
:1015C0000E94A5086091F8017091F90182E00E94E3
:1015D000A508089520910702309108028091030226
:1015E0009091040282179307E4F58091F80190919D
:1015F000F9018C5C914048F48091F8019091F901D7
:1016000001969093F9018093F80181E080931B0289
:1016100080911C02882309F4AFCF80911C02815075
:1016200080931C02C8CF2091090230910A02809158
:10163000050290910602281739070CF0BCCF809163
:10164000FA019091FB01873E910508F4B1CF80919A
:10165000FA019091FB0101979093FB018093FA01AD
:10166000A7CF209107023091080280910302909148
:101670000402281739070CF07ACF8091F801909175
:10168000F901873E910508F28091F8019091F901E6
:1016900001979093F9018093F801B7CF10921B0244
:1016A00010921C0210920F0210921002109211025E
:1016B000109212021092130210921402109215024C
:1016C0001092160289E591E09093F9018093F80158
:1016D0009093FB018093FA010E949A0882E069E5E9
:1016E00071E00E94A50883E069E571E00E94A50809
:1016F0000E947E0D81E090E00E9491040E94840D82
:1017000081E090E00E94910408950E94840D10925F
:1017100008021092070210920A021092090208951C
:1017200080911702811108950E94C00D90958195B6
:101730009F4F90930C0280930B0281E090E00E94F7
:1017400091040E94DB0D909581959F4F90930E021E
:1017500080930D0281E090E00E9491040E94850B2D
:1017600081E08093170220910B0230910C024427F4
:1017700037FD4095542F80910F0290911002A09157
:101780001102B0911202820F931FA41FB51F809304
:101790000F0290931002A0931102B09312022091B5
:1017A0000D0230910E02442737FD4095542F809151
:1017B000130290911402A0911502B0911602820FAB
:1017C000931FA41FB51F8093130290931402A0933C
:1017D0001502B093160210920C0210920B02109296
:1017E0000E0210920D02AAEAB2E0EAE8F1E086E108
:1017F00001900D928150E1F78AEA92E00E945E0426
:1018000082E390E00E949104089580E069E571E030
:101810000E94EB08109208021092070210920A022E
:101820001092090208950F931F93CF93DF930091B5
:10183000070210910802C0910902D0910A020E9489
:10184000050CAAEAB2E0E0EAF1E080E101900D9235
:101850008150E1F70E945E0488EB9BE00E949104B6
:101860000E94C00D909581959F4F90930C0280939C
:101870000B0281E090E00E9491040E94DB0D9095A4
:1018800081959F4F90930E0280930D02AAEAB2E0D9
:10189000E0EBF1E082E101900D928150E1F70E94CE
:1018A0005E040E94850B84E690E00E9491042091E2
:1018B0000B0230910C02442737FD4095542F809144
:1018C0000F0290911002A0911102B0911202820FAA
:1018D000931FA41FB51F80930F0290931002A09333
:1018E0001102B093120220910D0230910E02442792
:1018F00037FD4095542F8091130290911402A091CE
:101900001502B0911602820F931FA41FB51F80937A
:10191000130290931402A0931502B0931602109232
:1019200004021092030210920602109205020E9415
:10193000C00D909581959F4F90930C0280930B0260
:1019400081E090E00E9491040E94DB0D90958195CA
:101950009F4F90930E0280930D0281E090E00E94D1
:1019600091041093080200930702D0930A02C093D7
:101970000902AAEAB2E0E2ECF1E08AE001900D92FD
:101980008150E1F70E945E04DF91CF911F910F918A
:1019900008950E94C00D909581959F4F90930C02E1
:1019A00080930B0281E090E00E9491040E94DB0D85
:1019B000909581959F4F90930E0280930D0281E048
:1019C00090E00E94910480911A02882309F08BC054
:1019D00080911702882309F04BC08091F70188237A
:1019E00009F04DC080910B0290910C0297FD7EC0D2
:1019F000855C99404CF480910D0290910E0297FD08
:101A000079C0855C994014F00E94130C0E948A0DE5
:101A10009093040280930302809103029091040248
:101A2000909581959F4F909304028093030281E0EB
:101A300090E00E9491040E94A50D9093060280936D
:101A400005028091050290910602909581959F4F25
:101A5000909306028093050281E090E00E94910439
:101A600080910202882309F408950E942B0A0895A8
:101A70000E941E018091F701882309F4B3CF809161
:101A80000B0290910C02909581959F4FAA2797FD8C
:101A9000A095BA2F80930F0290931002A093110289
:101AA000B093120280910D0290910E029095819553
:101AB0009F4FAA2797FDA095BA2F8093130290936A
:101AC0001402A0931502B09316021092F701AAEA2D
:101AD000B2E0ECECF1E089E001900D928150E1F789
:101AE0000E945E047FCF0E94900B77CF90958195E6
:101AF0009F4F7ECF909581959F4F83CF82E360E08B
:101B000070E00E94AA02089588E260E070E00E94FE
:101B1000AA0208950F931F9382E160E070E00E9493
:101B2000AA0280E090E00E94B60280E090E00E946D
:101B3000B602182F00E080E090E00E94B602080F85
:101B4000191FC8011F910F9108950F931F9381E1F1
:101B500060E070E00E94AA0280E090E00E94B6027D
:101B600080E090E00E94B602182F00E080E090E054
:101B70000E94B602080F191FC8011F910F91089506
:101B80000F931F938AE060E070E00E94AA0280E059
:101B900090E00E94B60280E090E00E94B602182F0A
:101BA00000E080E090E00E94B602080F191FC80113
:101BB0001F910F9108950F931F9389E060E070E0EB
:101BC0000E94AA0280E090E00E94B60280E090E0CD
:101BD0000E94B602182F00E080E090E00E94B6025A
:101BE000080F191FC8011F910F910895FB01DC0117
:101BF0004150504048F001900D920020C9F701C0BB
:101C00001D9241505040E0F70895AEE0B0E0EBE0A7
:101C1000FEE00C9437110D891E8986E08C831A83AF
:101C200009838FEF9FE79E838D839E01275E3F4F41
:101C3000CE0101966F89788DA9010E94290E2F810E
:101C40003885020F131FF80110822E96E4E00C94E1
:101C50005311ABE0B0E0EFE2FEE00C9429113C013F
:101C60002B015A01FC0117821682838181FD03C07A
:101C70006FEF7FEFC6C19AE0892E1E010894211CE8
:101C8000311CF3012381F20123FD859123FF819112
:101C90002F01882309F4B2C1853239F423FD8591DF
:101CA00023FF81912F01853229F490E0B3010E9436
:101CB0001C10E7CF982FFF24EE249924FFE1FF1595
:101CC000D0F09B3269F09C3228F4903259F0933274
:101CD00091F40EC09D3249F0903369F441E024C084
:101CE00052E0F52A84E0F82A28C098E0F92A25C0B5
:101CF000E0E1FE2A22C0F7FC29C0892F80538A30F8
:101D000070F4F6FE05C0989C902C1124980E15C016
:101D1000E89CE02C1124E80EF0E2FF2A0EC09E326F
:101D200029F4F6FC6BC140E4F42A07C09C3619F490
:101D300050E8F52A02C0983649F4F20123FD959146
:101D400023FF91912F01992309F0B8CF892F855452
:101D5000833018F08052833038F444E050E0A40E11
:101D6000B51E5FE359830FC0933631F0933779F096
:101D7000933509F056C020C0F5018081898342E087
:101D800050E0A40EB51E610101E010E012C0F501A3
:101D9000C080D180F6FC03C06FEF7FEF02C0692DD9
:101DA00070E042E050E0A40EB51EC6010E94111082
:101DB0008C015FE7F52214C0F501C080D180F6FCEC
:101DC00003C06FEF7FEF02C0692D70E042E050E08A
:101DD000A40EB51EC6010E9406108C0150E8F52A1B
:101DE000F3FE07C01AC080E290E0B3010E941C100D
:101DF000EA948E2D90E008171907A8F30EC0F6019B
:101E0000F7FC8591F7FE81916F0190E0B3010E948C
:101E10001C10E110EA94015010400115110579F7EA
:101E2000EAC0943611F0993669F5F7FE08C0F5015D
:101E3000208131814281538184E090E00AC0F50124
:101E4000808191819C01442737FD4095542F82E089
:101E500090E0A80EB91E9FE6F92257FF09C05095E1
:101E60004095309521953F4F4F4F5F4FE0E8FE2A58
:101E7000CA01B901A1012AE030E00E944810D82E21
:101E8000D21840C0953729F41F2D1F7E2AE030E07C
:101E90001DC01F2D197F9F3661F0903720F49835B3
:101EA00009F0ACC00FC0903739F0983709F0A6C0E0
:101EB00004C028E030E00AC0106114FD146020E185
:101EC00030E004C014FD166020E132E017FF08C0C6
:101ED000F501608171818281938144E050E008C006
:101EE000F50180819181BC0180E090E042E050E00A
:101EF000A40EB51EA1010E944810D82ED2188FE75B
:101F0000F82EF122F6FE0BC05EEFF522D91438F45C
:101F1000F4FE07C0F2FC05C08FEEF82202C01D2DB2
:101F200001C0192DF4FE0DC0FE01ED0DF11D8081E3
:101F3000803319F499EEF92208C01F5FF2FE05C044
:101F400003C08F2D867809F01F5F0F2DF3FC14C09E
:101F5000F0FE0FC01E1510F09D2C0BC09D2C9E0C8A
:101F6000911A1E2D06C080E290E0B3010E941C1061
:101F70001F5F1E15C0F304C01E1510F4E11A01C046
:101F8000EE2404FF0FC080E390E0B3010E941C1018
:101F900002FF1DC001FD03C088E790E00EC088E588
:101FA00090E00BC0802F867891F001FF02C08BE299
:101FB00001C080E2F7FC8DE290E0B3010E941C10AA
:101FC00006C080E390E0B3010E941C109A94D914DB
:101FD000C0F3DA94F101ED0DF11D808190E0B301C1
:101FE0000E941C10DD20A9F706C080E290E0B3013A
:101FF0000E941C10EA94EE20C1F743CEF3016681E3
:102000007781CB012B96E2E10C944511FC01059000
:10201000615070400110D8F7809590958E0F9F1FEA
:102020000895FC016150704001900110D8F780952F
:1020300090958E0F9F1F08950F931F93CF93DF935B
:102040008C01EB018B8181FF1BC082FF0DC02E81B3
:102050003F818C819D812817390764F4E881F981DB
:102060000193F983E88306C0E885F985802F0995F7
:10207000892B31F48E819F8101969F838E8302C0CC
:102080000FEF1FEFC801DF91CF911F910F910895BE
:10209000FA01AA27283051F1203181F1E8946F9399
:1020A0006E7F6E5F7F4F8F4F9F4FAF4FB1E03ED03F
:1020B000B4E03CD0670F781F891F9A1FA11D680FDD
:1020C000791F8A1F911DA11D6A0F711D811D911D10
:1020D000A11D20D009F468943F912AE0269F112485
:1020E0003019305D3193DEF6CF010895462F4770E9
:1020F000405D4193B3E00FD0C9F7F6CF462F4F7044
:10210000405D4A3318F0495D31FD4052419302D0A1
:10211000A9F7EACFB4E0A695979587957795679547
:10212000BA95C9F700976105710508959B01AC0147
:102130000A2E06945795479537952795BA95C9F76E
:10214000620F731F841F951FA01D0895629FD00109
:10215000739FF001829FE00DF11D649FE00DF11D62
:10216000929FF00D839FF00D749FF00D659FF00D11
:102170009927729FB00DE11DF91F639FB00DE11DFE
:10218000F91FBD01CF0111240895AA1BBB1B51E10A
:1021900007C0AA1FBB1FA617B70710F0A61BB70BD7
:1021A000881F991F5A95A9F780959095BC01CD017C
:1021B000089597FB092E07260AD077FD04D0E5DFA6
:1021C00006D000201AF4709561957F4F0895F6F7B8
:1021D000909581959F4F089597FB092E05260ED067
:1021E00057FD04D014D00AD0001C38F45095409507
:1021F000309521953F4F4F4F5F4F0895F6F79095DB
:102200008095709561957F4F8F4F9F4F0895A1E204
:102210001A2EAA1BBB1BFD010DC0AA1FBB1FEE1F60
:10222000FF1FA217B307E407F50720F0A21BB30BAB
:10223000E40BF50B661F771F881F991F1A9469F727
:1022400060957095809590959B01AC01BD01CF0183
:1022500008952F923F924F925F926F927F928F924A
:102260009F92AF92BF92CF92DF92EF92FF920F9325
:102270001F93CF93DF93CDB7DEB7CA1BDB0B0FB62F
:10228000F894DEBF0FBECDBF09942A8839884888EC
:102290005F846E847D848C849B84AA84B984C88482
:1022A000DF80EE80FD800C811B81AA81B981CE0F79
:1022B000D11D0FB6F894DEBF0FBECDBFED0108955E
:0422C000F894FFCFC0
:1022C40040256C6420256C64202564202564202529
:1022D4006420256420257520257520257520257505
:1022E4002025750A0D0021724F4E0A0D0021724FF0
:1022F40046460A0D00217265645F737769746368EA
:102304005F72656C65617365640A0D002120736DED
:10231400656C79207A616A6B6F0A0D002D50FFFF9E
:10232400FFFFFF020000000300000000AA02B60243
:1023340000002D022D020100000000030000000037
:10234400F602EE020000013118FC2172656420736C
:10235400776974636820707265737365640A0D002D
:10236400216E656564206120627265616B0A0D00EF
:1023740021726573657420706F7320746F20300A46
:102384000D0021726573756D650A0D002172657308
:0623940065740A0D000053
:00000001FF
